{
  "contractName": "KarPassport",
  "abi": [
    {
      "inputs": [
        {
          "internalType": "address",
          "name": "tokenContractAddr",
          "type": "address"
        }
      ],
      "stateMutability": "payable",
      "type": "constructor",
      "payable": true
    },
    {
      "anonymous": false,
      "inputs": [
        {
          "indexed": false,
          "internalType": "address",
          "name": "sender",
          "type": "address"
        },
        {
          "indexed": false,
          "internalType": "address",
          "name": "contractAddress",
          "type": "address"
        },
        {
          "indexed": false,
          "internalType": "uint256",
          "name": "amount",
          "type": "uint256"
        },
        {
          "indexed": false,
          "internalType": "uint256",
          "name": "senderBalance",
          "type": "uint256"
        }
      ],
      "name": "TransfertToken",
      "type": "event"
    },
    {
      "inputs": [
        {
          "internalType": "string",
          "name": "name",
          "type": "string"
        },
        {
          "internalType": "string",
          "name": "id",
          "type": "string"
        },
        {
          "internalType": "string",
          "name": "brand",
          "type": "string"
        },
        {
          "internalType": "string",
          "name": "modele",
          "type": "string"
        },
        {
          "internalType": "uint256",
          "name": "year",
          "type": "uint256"
        },
        {
          "internalType": "string",
          "name": "numberPlate",
          "type": "string"
        }
      ],
      "name": "createPassport",
      "outputs": [
        {
          "internalType": "uint256",
          "name": "",
          "type": "uint256"
        }
      ],
      "stateMutability": "nonpayable",
      "type": "function"
    },
    {
      "inputs": [
        {
          "internalType": "uint256",
          "name": "passportId",
          "type": "uint256"
        }
      ],
      "name": "deletePassport",
      "outputs": [
        {
          "internalType": "bool",
          "name": "",
          "type": "bool"
        }
      ],
      "stateMutability": "nonpayable",
      "type": "function"
    },
    {
      "inputs": [],
      "name": "transferAllowedToken",
      "outputs": [
        {
          "internalType": "bool",
          "name": "",
          "type": "bool"
        }
      ],
      "stateMutability": "nonpayable",
      "type": "function"
    },
    {
      "inputs": [
        {
          "internalType": "uint256",
          "name": "numToken",
          "type": "uint256"
        }
      ],
      "name": "withdrawToken",
      "outputs": [
        {
          "internalType": "bool",
          "name": "",
          "type": "bool"
        }
      ],
      "stateMutability": "nonpayable",
      "type": "function"
    },
    {
      "inputs": [
        {
          "internalType": "uint256",
          "name": "passportId",
          "type": "uint256"
        },
        {
          "internalType": "address",
          "name": "acquirer",
          "type": "address"
        }
      ],
      "name": "transferPassport",
      "outputs": [
        {
          "internalType": "bool",
          "name": "",
          "type": "bool"
        }
      ],
      "stateMutability": "nonpayable",
      "type": "function"
    },
    {
      "inputs": [],
      "name": "passportIdentifiants",
      "outputs": [
        {
          "internalType": "uint256[]",
          "name": "",
          "type": "uint256[]"
        }
      ],
      "stateMutability": "view",
      "type": "function",
      "constant": true
    },
    {
      "inputs": [
        {
          "internalType": "uint256",
          "name": "idPassport",
          "type": "uint256"
        }
      ],
      "name": "eventsNumber",
      "outputs": [
        {
          "internalType": "uint256",
          "name": "",
          "type": "uint256"
        }
      ],
      "stateMutability": "view",
      "type": "function",
      "constant": true
    },
    {
      "inputs": [
        {
          "internalType": "uint256",
          "name": "idPassport",
          "type": "uint256"
        },
        {
          "internalType": "uint256",
          "name": "eventIndex",
          "type": "uint256"
        }
      ],
      "name": "passportEvent",
      "outputs": [
        {
          "internalType": "address",
          "name": "",
          "type": "address"
        },
        {
          "internalType": "string",
          "name": "",
          "type": "string"
        },
        {
          "internalType": "uint256",
          "name": "",
          "type": "uint256"
        },
        {
          "internalType": "uint256",
          "name": "",
          "type": "uint256"
        },
        {
          "internalType": "uint256",
          "name": "",
          "type": "uint256"
        }
      ],
      "stateMutability": "view",
      "type": "function",
      "constant": true
    },
    {
      "inputs": [
        {
          "internalType": "uint256",
          "name": "idPassport",
          "type": "uint256"
        },
        {
          "internalType": "uint256",
          "name": "eventIndex",
          "type": "uint256"
        }
      ],
      "name": "passportWaitingEvents",
      "outputs": [
        {
          "internalType": "address",
          "name": "",
          "type": "address"
        },
        {
          "internalType": "string",
          "name": "",
          "type": "string"
        },
        {
          "internalType": "uint256",
          "name": "",
          "type": "uint256"
        },
        {
          "internalType": "uint256",
          "name": "",
          "type": "uint256"
        },
        {
          "internalType": "uint256",
          "name": "",
          "type": "uint256"
        }
      ],
      "stateMutability": "view",
      "type": "function",
      "constant": true
    },
    {
      "inputs": [
        {
          "internalType": "uint256",
          "name": "idPassport",
          "type": "uint256"
        }
      ],
      "name": "passportWaitingEventsIDs",
      "outputs": [
        {
          "internalType": "uint256[]",
          "name": "",
          "type": "uint256[]"
        }
      ],
      "stateMutability": "view",
      "type": "function",
      "constant": true
    },
    {
      "inputs": [
        {
          "internalType": "uint256",
          "name": "idPassport",
          "type": "uint256"
        },
        {
          "internalType": "string",
          "name": "description",
          "type": "string"
        },
        {
          "internalType": "uint256",
          "name": "date",
          "type": "uint256"
        },
        {
          "internalType": "uint256",
          "name": "expirationDate",
          "type": "uint256"
        },
        {
          "internalType": "uint256",
          "name": "km",
          "type": "uint256"
        }
      ],
      "name": "createEvent",
      "outputs": [
        {
          "internalType": "bool",
          "name": "",
          "type": "bool"
        }
      ],
      "stateMutability": "nonpayable",
      "type": "function"
    },
    {
      "inputs": [
        {
          "internalType": "uint256",
          "name": "idPassport",
          "type": "uint256"
        },
        {
          "internalType": "uint256",
          "name": "idEvent",
          "type": "uint256"
        }
      ],
      "name": "approveEvent",
      "outputs": [
        {
          "internalType": "bool",
          "name": "",
          "type": "bool"
        }
      ],
      "stateMutability": "nonpayable",
      "type": "function"
    },
    {
      "inputs": [
        {
          "internalType": "uint256",
          "name": "idPassport",
          "type": "uint256"
        },
        {
          "internalType": "uint256",
          "name": "idEvent",
          "type": "uint256"
        }
      ],
      "name": "dismissEvent",
      "outputs": [
        {
          "internalType": "bool",
          "name": "",
          "type": "bool"
        }
      ],
      "stateMutability": "nonpayable",
      "type": "function"
    },
    {
      "inputs": [
        {
          "internalType": "uint256",
          "name": "idPassport",
          "type": "uint256"
        },
        {
          "internalType": "uint256",
          "name": "idEvent",
          "type": "uint256"
        }
      ],
      "name": "cancelEvent",
      "outputs": [
        {
          "internalType": "bool",
          "name": "",
          "type": "bool"
        }
      ],
      "stateMutability": "nonpayable",
      "type": "function"
    },
    {
      "inputs": [
        {
          "internalType": "uint256",
          "name": "idPassport",
          "type": "uint256"
        }
      ],
      "name": "balance",
      "outputs": [
        {
          "internalType": "uint256",
          "name": "",
          "type": "uint256"
        }
      ],
      "stateMutability": "view",
      "type": "function",
      "constant": true
    },
    {
      "inputs": [],
      "name": "balance",
      "outputs": [
        {
          "internalType": "uint256",
          "name": "",
          "type": "uint256"
        }
      ],
      "stateMutability": "view",
      "type": "function",
      "constant": true
    },
    {
      "inputs": [],
      "name": "lockedBalance",
      "outputs": [
        {
          "internalType": "uint256",
          "name": "",
          "type": "uint256"
        }
      ],
      "stateMutability": "view",
      "type": "function",
      "constant": true
    },
    {
      "inputs": [
        {
          "internalType": "uint256",
          "name": "identifiant",
          "type": "uint256"
        }
      ],
      "name": "passport",
      "outputs": [
        {
          "internalType": "string",
          "name": "",
          "type": "string"
        },
        {
          "internalType": "string",
          "name": "",
          "type": "string"
        },
        {
          "internalType": "string",
          "name": "",
          "type": "string"
        },
        {
          "internalType": "string",
          "name": "",
          "type": "string"
        },
        {
          "internalType": "uint256",
          "name": "",
          "type": "uint256"
        },
        {
          "internalType": "string",
          "name": "",
          "type": "string"
        },
        {
          "internalType": "uint256",
          "name": "",
          "type": "uint256"
        },
        {
          "internalType": "uint256",
          "name": "",
          "type": "uint256"
        },
        {
          "internalType": "uint256",
          "name": "",
          "type": "uint256"
        }
      ],
      "stateMutability": "view",
      "type": "function",
      "constant": true
    },
    {
      "inputs": [
        {
          "internalType": "uint256",
          "name": "idPassport",
          "type": "uint256"
        }
      ],
      "name": "name",
      "outputs": [
        {
          "internalType": "string",
          "name": "",
          "type": "string"
        }
      ],
      "stateMutability": "view",
      "type": "function",
      "constant": true
    },
    {
      "inputs": [
        {
          "internalType": "uint256",
          "name": "idPassport",
          "type": "uint256"
        }
      ],
      "name": "id",
      "outputs": [
        {
          "internalType": "string",
          "name": "",
          "type": "string"
        }
      ],
      "stateMutability": "view",
      "type": "function",
      "constant": true
    },
    {
      "inputs": [
        {
          "internalType": "uint256",
          "name": "idPassport",
          "type": "uint256"
        }
      ],
      "name": "brand",
      "outputs": [
        {
          "internalType": "string",
          "name": "",
          "type": "string"
        }
      ],
      "stateMutability": "view",
      "type": "function",
      "constant": true
    },
    {
      "inputs": [
        {
          "internalType": "uint256",
          "name": "idPassport",
          "type": "uint256"
        }
      ],
      "name": "modele",
      "outputs": [
        {
          "internalType": "string",
          "name": "",
          "type": "string"
        }
      ],
      "stateMutability": "view",
      "type": "function",
      "constant": true
    }
  ],
  "bytecode": "0x60806040526064600055600a600155600160025560006003556040516151f73803806151f78339818101604052602081101561003a57600080fd5b810190808051906020019092919050505080600660006101000a81548173ffffffffffffffffffffffffffffffffffffffff021916908373ffffffffffffffffffffffffffffffffffffffff1602179055505061515b8061009c6000396000f3fe608060405234801561001057600080fd5b50600436106101415760003560e01c8063809187be116100b8578063b69ef8a81161007c578063b69ef8a814610b36578063b733b95114610b54578063bedf7e1914610dc7578063c663f0ce14610e6e578063db7620a614610f67578063fdf3ad8a14610fb757610141565b8063809187be1461055e5780638f5ffdeb146106575780639a224567146106b65780639ec4b59a146109eb578063af1194be14610ae657610141565b80634803d0951161010a5780634803d0951461036c57806350baa622146103ae5780637894dac2146103f45780637b247810146104165780637b80889b146104995780637d3c40c8146104b757610141565b8062ad800c1461014657806308eba844146101ed57806311af161c1461023d5780631575c425146102e457806347bb89f01461032a575b600080fd5b6101726004803603602081101561015c57600080fd5b810190808035906020019092919050505061101d565b6040518080602001828103825283818151815260200191508051906020019080838360005b838110156101b2578082015181840152602081019050610197565b50505050905090810190601f1680156101df5780820380516001836020036101000a031916815260200191505b509250505060405180910390f35b6102236004803603604081101561020357600080fd5b8101908080359060200190929190803590602001909291905050506110d8565b604051808215151515815260200191505060405180910390f35b6102696004803603602081101561025357600080fd5b810190808035906020019092919050505061123c565b6040518080602001828103825283818151815260200191508051906020019080838360005b838110156102a957808201518184015260208101905061028e565b50505050905090810190601f1680156102d65780820380516001836020036101000a031916815260200191505b509250505060405180910390f35b610310600480360360208110156102fa57600080fd5b81019080803590602001909291905050506112f7565b604051808215151515815260200191505060405180910390f35b6103566004803603602081101561034057600080fd5b81019080803590602001909291905050506116cf565b6040518082815260200191505060405180910390f35b6103986004803603602081101561038257600080fd5b81019080803590602001909291905050506116ef565b6040518082815260200191505060405180910390f35b6103da600480360360208110156103c457600080fd5b8101908080359060200190929190505050611712565b604051808215151515815260200191505060405180910390f35b6103fc611954565b604051808215151515815260200191505060405180910390f35b6104426004803603602081101561042c57600080fd5b8101908080359060200190929190505050611964565b6040518080602001828103825283818151815260200191508051906020019060200280838360005b8381101561048557808201518184015260208101905061046a565b505050509050019250505060405180910390f35b6104a1611bc9565b6040518082815260200191505060405180910390f35b6104e3600480360360208110156104cd57600080fd5b8101908080359060200190929190505050611c10565b6040518080602001828103825283818151815260200191508051906020019080838360005b83811015610523578082015181840152602081019050610508565b50505050905090810190601f1680156105505780820380516001836020036101000a031916815260200191505b509250505060405180910390f35b6105946004803603604081101561057457600080fd5b810190808035906020019092919080359060200190929190505050611ccb565b604051808673ffffffffffffffffffffffffffffffffffffffff1673ffffffffffffffffffffffffffffffffffffffff16815260200180602001858152602001848152602001838152602001828103825286818151815260200191508051906020019080838360005b838110156106185780820151818401526020810190506105fd565b50505050905090810190601f1680156106455780820380516001836020036101000a031916815260200191505b50965050505050505060405180910390f35b61065f611fe3565b6040518080602001828103825283818151815260200191508051906020019060200280838360005b838110156106a2578082015181840152602081019050610687565b505050509050019250505060405180910390f35b6109d5600480360360c08110156106cc57600080fd5b81019080803590602001906401000000008111156106e957600080fd5b8201836020820111156106fb57600080fd5b8035906020019184600183028401116401000000008311171561071d57600080fd5b91908080601f016020809104026020016040519081016040528093929190818152602001838380828437600081840152601f19601f8201169050808301925050505050505091929192908035906020019064010000000081111561078057600080fd5b82018360208201111561079257600080fd5b803590602001918460018302840111640100000000831117156107b457600080fd5b91908080601f016020809104026020016040519081016040528093929190818152602001838380828437600081840152601f19601f8201169050808301925050505050505091929192908035906020019064010000000081111561081757600080fd5b82018360208201111561082957600080fd5b8035906020019184600183028401116401000000008311171561084b57600080fd5b91908080601f016020809104026020016040519081016040528093929190818152602001838380828437600081840152601f19601f820116905080830192505050505050509192919290803590602001906401000000008111156108ae57600080fd5b8201836020820111156108c057600080fd5b803590602001918460018302840111640100000000831117156108e257600080fd5b91908080601f016020809104026020016040519081016040528093929190818152602001838380828437600081840152601f19601f820116905080830192505050505050509192919290803590602001909291908035906020019064010000000081111561094f57600080fd5b82018360208201111561096157600080fd5b8035906020019184600183028401116401000000008311171561098357600080fd5b91908080601f016020809104026020016040519081016040528093929190818152602001838380828437600081840152601f19601f82011690508083019250505050505050919291929050505061212e565b6040518082815260200191505060405180910390f35b610acc600480360360a0811015610a0157600080fd5b810190808035906020019092919080359060200190640100000000811115610a2857600080fd5b820183602082011115610a3a57600080fd5b80359060200191846001830284011164010000000083111715610a5c57600080fd5b91908080601f016020809104026020016040519081016040528093929190818152602001838380828437600081840152601f19601f820116905080830192505050505050509192919290803590602001909291908035906020019092919080359060200190929190505050612549565b604051808215151515815260200191505060405180910390f35b610b1c60048036036040811015610afc57600080fd5b810190808035906020019092919080359060200190929190505050612900565b604051808215151515815260200191505060405180910390f35b610b3e612d31565b6040518082815260200191505060405180910390f35b610b8060048036036020811015610b6a57600080fd5b8101908080359060200190929190505050612d78565b60405180806020018060200180602001806020018a81526020018060200189815260200188815260200187815260200186810386528f818151815260200191508051906020019080838360005b83811015610be8578082015181840152602081019050610bcd565b50505050905090810190601f168015610c155780820380516001836020036101000a031916815260200191505b5086810385528e818151815260200191508051906020019080838360005b83811015610c4e578082015181840152602081019050610c33565b50505050905090810190601f168015610c7b5780820380516001836020036101000a031916815260200191505b5086810384528d818151815260200191508051906020019080838360005b83811015610cb4578082015181840152602081019050610c99565b50505050905090810190601f168015610ce15780820380516001836020036101000a031916815260200191505b5086810383528c818151815260200191508051906020019080838360005b83811015610d1a578082015181840152602081019050610cff565b50505050905090810190601f168015610d475780820380516001836020036101000a031916815260200191505b5086810382528a818151815260200191508051906020019080838360005b83811015610d80578082015181840152602081019050610d65565b50505050905090810190601f168015610dad5780820380516001836020036101000a031916815260200191505b509e50505050505050505050505050505060405180910390f35b610df360048036036020811015610ddd57600080fd5b81019080803590602001909291905050506135e5565b6040518080602001828103825283818151815260200191508051906020019080838360005b83811015610e33578082015181840152602081019050610e18565b50505050905090810190601f168015610e605780820380516001836020036101000a031916815260200191505b509250505060405180910390f35b610ea460048036036040811015610e8457600080fd5b8101908080359060200190929190803590602001909291905050506136a0565b604051808673ffffffffffffffffffffffffffffffffffffffff1673ffffffffffffffffffffffffffffffffffffffff16815260200180602001858152602001848152602001838152602001828103825286818151815260200191508051906020019080838360005b83811015610f28578082015181840152602081019050610f0d565b50505050905090810190601f168015610f555780820380516001836020036101000a031916815260200191505b50965050505050505060405180910390f35b610f9d60048036036040811015610f7d57600080fd5b8101908080359060200190929190803590602001909291905050506139b8565b604051808215151515815260200191505060405180910390f35b61100360048036036040811015610fcd57600080fd5b8101908080359060200190929190803573ffffffffffffffffffffffffffffffffffffffff169060200190929190505050613b02565b604051808215151515815260200191505060405180910390f35b6060600460008381526020019081526020016000206001016000018054600181600116156101000203166002900480601f0160208091040260200160405190810160405280929190818152602001828054600181600116156101000203166002900480156110cc5780601f106110a1576101008083540402835291602001916110cc565b820191906000526020600020905b8154815290600101906020018083116110af57829003601f168201915b50505050509050919050565b600082823373ffffffffffffffffffffffffffffffffffffffff1660046000848152602001908152602001600020601701600101600083815260200190815260200160002060000160009054906101000a900473ffffffffffffffffffffffffffffffffffffffff1673ffffffffffffffffffffffffffffffffffffffff1610156111cb576040517f08c379a00000000000000000000000000000000000000000000000000000000081526004018080602001828103825260108152602001807f4e6f20746f6b656e20616c6c6f7765640000000000000000000000000000000081525060200191505060405180910390fd5b61122460046000878152602001908152602001600020601701600101600086815260200190815260200160002060000160009054906101000a900473ffffffffffffffffffffffffffffffffffffffff16600154613fb7565b5061122f85856141a2565b5060019250505092915050565b6060600460008381526020019081526020016000206001016003018054600181600116156101000203166002900480601f0160208091040260200160405190810160405280929190818152602001828054600181600116156101000203166002900480156112eb5780601f106112c0576101008083540402835291602001916112eb565b820191906000526020600020905b8154815290600101906020018083116112ce57829003601f168201915b50505050509050919050565b6000813373ffffffffffffffffffffffffffffffffffffffff166004600083815260200190815260200160002060000160009054906101000a900473ffffffffffffffffffffffffffffffffffffffff1673ffffffffffffffffffffffffffffffffffffffff16146113d1576040517f08c379a00000000000000000000000000000000000000000000000000000000081526004018080602001828103825260098152602001807f4e6f74206f776e6572000000000000000000000000000000000000000000000081525060200191505060405180910390fd5b6114396004600085815260200190815260200160002060140154600760003373ffffffffffffffffffffffffffffffffffffffff1673ffffffffffffffffffffffffffffffffffffffff168152602001908152602001600020546143a790919063ffffffff16565b600760003373ffffffffffffffffffffffffffffffffffffffff1673ffffffffffffffffffffffffffffffffffffffff1681526020019081526020016000208190555060046000848152602001908152602001600020600080820160006101000a81549073ffffffffffffffffffffffffffffffffffffffff021916905560018201600080820160006114cc9190614df8565b6001820160006114dc9190614df8565b6002820160006114ec9190614df8565b6003820160006114fc9190614df8565b6004820160009055600582016000905560068201600061151c9190614df8565b60078201600061152c9190614df8565b60088201600061153c9190614df8565b60098201600061154c9190614df8565b600a820160009055600b820160009055600c820160009055600d82016000808201600090555050600f820160006115839190614df8565b50506011820160009055601282016000905560138201600090556014820160009055601582016000808201600090555050601782016000808201600090556002820160008082016000905550505050601b82016000808201600090555050601d820160006101000a81549060ff0219169055505060008090506000600190505b6001600560003373ffffffffffffffffffffffffffffffffffffffff1673ffffffffffffffffffffffffffffffffffffffff16815260200190815260200160002060000154018110156116bc5784600560003373ffffffffffffffffffffffffffffffffffffffff1673ffffffffffffffffffffffffffffffffffffffff16815260200190815260200160002060010160008381526020019081526020016000205414156116af578091505b8080600101915050611603565b506116c68161442f565b92505050919050565b600060046000838152602001908152602001600020601401549050919050565b600060046000838152602001908152602001600020601501600001549050919050565b600081600760003373ffffffffffffffffffffffffffffffffffffffff1673ffffffffffffffffffffffffffffffffffffffff168152602001908152602001600020548111156117ca576040517f08c379a00000000000000000000000000000000000000000000000000000000081526004018080602001828103825260118152602001807f4e6f7420656e6f7567746820746f6b656e00000000000000000000000000000081525060200191505060405180910390fd5b6000600660009054906101000a900473ffffffffffffffffffffffffffffffffffffffff1690508073ffffffffffffffffffffffffffffffffffffffff1663a9059cbb33866040518363ffffffff1660e01b8152600401808373ffffffffffffffffffffffffffffffffffffffff1673ffffffffffffffffffffffffffffffffffffffff16815260200182815260200192505050602060405180830381600087803b15801561187857600080fd5b505af115801561188c573d6000803e3d6000fd5b505050506040513d60208110156118a257600080fd5b81019080805190602001909291905050505061190684600760003373ffffffffffffffffffffffffffffffffffffffff1673ffffffffffffffffffffffffffffffffffffffff168152602001908152602001600020546145e990919063ffffffff16565b600760003373ffffffffffffffffffffffffffffffffffffffff1673ffffffffffffffffffffffffffffffffffffffff16815260200190815260200160002081905550600192505050919050565b600061195f33614633565b905090565b60608160046000828152602001908152602001600020601d0160009054906101000a900460ff166119fd576040517f08c379a000000000000000000000000000000000000000000000000000000000815260040180806020018281038252601b8152602001807f7468652070617373706f727420646f6573206e6f74206578697374000000000081525060200191505060405180910390fd5b60606004600085815260200190815260200160002060170160020160000154604051908082528060200260200182016040528015611a4a5781602001602082028038833980820191505090505b50905060008090505b6004600086815260200190815260200160002060170160020160000154811015611bbe5760046000868152602001908152602001600020601701600101600060018301815260200190815260200160002060000160009054906101000a900473ffffffffffffffffffffffffffffffffffffffff1673ffffffffffffffffffffffffffffffffffffffff163373ffffffffffffffffffffffffffffffffffffffff161480611b6257506004600086815260200190815260200160002060000160009054906101000a900473ffffffffffffffffffffffffffffffffffffffff1673ffffffffffffffffffffffffffffffffffffffff163373ffffffffffffffffffffffffffffffffffffffff16145b15611bb15760046000868152602001908152602001600020601701600201600101600060018301815260200190815260200160002054828281518110611ba457fe5b6020026020010181815250505b8080600101915050611a53565b508092505050919050565b6000600860003373ffffffffffffffffffffffffffffffffffffffff1673ffffffffffffffffffffffffffffffffffffffff16815260200190815260200160002054905090565b6060600460008381526020019081526020016000206001016001018054600181600116156101000203166002900480601f016020809104026020016040519081016040528092919081815260200182805460018160011615610100020316600290048015611cbf5780601f10611c9457610100808354040283529160200191611cbf565b820191906000526020600020905b815481529060010190602001808311611ca257829003601f168201915b50505050509050919050565b6000606060008060008660046000828152602001908152602001600020601d0160009054906101000a900460ff16611d6b576040517f08c379a000000000000000000000000000000000000000000000000000000000815260040180806020018281038252601b8152602001807f7468652070617373706f727420646f6573206e6f74206578697374000000000081525060200191505060405180910390fd5b878760006004600084815260200190815260200160002060170160000154118015611dcd575060046000838152602001908152602001600020601701600101600082815260200190815260200160002060050160009054906101000a900460ff165b611e3f576040517f08c379a000000000000000000000000000000000000000000000000000000000815260040180806020018281038252601b8152602001807f7468652070617373706f727420646f6573206e6f74206578697374000000000081525060200191505060405180910390fd5b611e47614e40565b600460008c815260200190815260200160002060170160010160008b81526020019081526020016000206040518060c00160405290816000820160009054906101000a900473ffffffffffffffffffffffffffffffffffffffff1673ffffffffffffffffffffffffffffffffffffffff1673ffffffffffffffffffffffffffffffffffffffff168152602001600182018054600181600116156101000203166002900480601f016020809104026020016040519081016040528092919081815260200182805460018160011615610100020316600290048015611f6b5780601f10611f4057610100808354040283529160200191611f6b565b820191906000526020600020905b815481529060010190602001808311611f4e57829003601f168201915b505050505081526020016002820154815260200160038201548152602001600482015481526020016005820160009054906101000a900460ff16151515158152505090508060000151816020015182604001518360600151846080015183935098509850985098509850505050509295509295909350565b606080600560003373ffffffffffffffffffffffffffffffffffffffff1673ffffffffffffffffffffffffffffffffffffffff168152602001908152602001600020600001546040519080825280602002602001820160405280156120575781602001602082028038833980820191505090505b50905060008090505b600560003373ffffffffffffffffffffffffffffffffffffffff1673ffffffffffffffffffffffffffffffffffffffff1681526020019081526020016000206000015481101561212657600560003373ffffffffffffffffffffffffffffffffffffffff1673ffffffffffffffffffffffffffffffffffffffff16815260200190815260200160002060010160006001830181526020019081526020016000205482828151811061210d57fe5b6020026020010181815250508080600101915050612060565b508091505090565b60008054600760003373ffffffffffffffffffffffffffffffffffffffff1673ffffffffffffffffffffffffffffffffffffffff1681526020019081526020016000205410156121e6576040517f08c379a00000000000000000000000000000000000000000000000000000000081526004018080602001828103825260118152602001807f4e6f7420656e6f7567687420746f6b656e00000000000000000000000000000081525060200191505060405180910390fd5b61223a600054600760003373ffffffffffffffffffffffffffffffffffffffff1673ffffffffffffffffffffffffffffffffffffffff168152602001908152602001600020546145e990919063ffffffff16565b600760003373ffffffffffffffffffffffffffffffffffffffff1673ffffffffffffffffffffffffffffffffffffffff168152602001908152602001600020819055506003600081548092919060010191905055503360046000600354815260200190815260200160002060000160006101000a81548173ffffffffffffffffffffffffffffffffffffffff021916908373ffffffffffffffffffffffffffffffffffffffff160217905550866004600060035481526020019081526020016000206001016000019080519060200190612315929190614e8e565b50856004600060035481526020019081526020016000206001016001019080519060200190612345929190614e8e565b50846004600060035481526020019081526020016000206001016002019080519060200190612375929190614e8e565b508360046000600354815260200190815260200160002060010160030190805190602001906123a5929190614e8e565b50826004600060035481526020019081526020016000206001016004018190555081600460006003548152602001908152602001600020600101600f0190805190602001906123f5929190614e8e565b50600054600460006003548152602001908152602001600020601401819055506001600460006003548152602001908152602001600020601d0160006101000a81548160ff021916908315150217905550600560003373ffffffffffffffffffffffffffffffffffffffff1673ffffffffffffffffffffffffffffffffffffffff168152602001908152602001600020600001600081548092919060010191905055506000600560003373ffffffffffffffffffffffffffffffffffffffff1673ffffffffffffffffffffffffffffffffffffffff168152602001908152602001600020600001549050600354600560003373ffffffffffffffffffffffffffffffffffffffff1673ffffffffffffffffffffffffffffffffffffffff1681526020019081526020016000206001016000838152602001908152602001600020819055506003549150509695505050505050565b6000600154600760003373ffffffffffffffffffffffffffffffffffffffff1673ffffffffffffffffffffffffffffffffffffffff16815260200190815260200160002054811115612603576040517f08c379a00000000000000000000000000000000000000000000000000000000081526004018080602001828103825260118152602001807f4e6f7420656e6f7567746820746f6b656e00000000000000000000000000000081525060200191505060405180910390fd5b61260f33600154614b4f565b50600460008881526020019081526020016000206017016000016000815480929190600101919050555033600460008981526020019081526020016000206017016001016000600460008b815260200190815260200160002060170160000154815260200190815260200160002060000160006101000a81548173ffffffffffffffffffffffffffffffffffffffff021916908373ffffffffffffffffffffffffffffffffffffffff16021790555085600460008981526020019081526020016000206017016001016000600460008b81526020019081526020016000206017016000015481526020019081526020016000206001019080519060200190612718929190614e8e565b5084600460008981526020019081526020016000206017016001016000600460008b81526020019081526020016000206017016000015481526020019081526020016000206002018190555083600460008981526020019081526020016000206017016001016000600460008b81526020019081526020016000206017016000015481526020019081526020016000206003018190555082600460008981526020019081526020016000206017016001016000600460008b8152602001908152602001600020601701600001548152602001908152602001600020600401819055506001600460008981526020019081526020016000206017016001016000600460008b815260200190815260200160002060170160000154815260200190815260200160002060050160006101000a81548160ff021916908315150217905550600460008881526020019081526020016000206017016002016000016000815480929190600101919050555060006004600089815260200190815260200160002060170160000154905080600460008a81526020019081526020016000206017016002016001016000600460008c81526020019081526020016000206017016002016000015481526020019081526020016000208190555060019250505095945050505050565b6000823373ffffffffffffffffffffffffffffffffffffffff166004600083815260200190815260200160002060000160009054906101000a900473ffffffffffffffffffffffffffffffffffffffff1673ffffffffffffffffffffffffffffffffffffffff16146129da576040517f08c379a00000000000000000000000000000000000000000000000000000000081526004018080602001828103825260098152602001807f4e6f74206f776e6572000000000000000000000000000000000000000000000081525060200191505060405180910390fd5b836002548060046000848152602001908152602001600020601401541015612a6a576040517f08c379a000000000000000000000000000000000000000000000000000000000815260040180806020018281038252601d8152602001807f4e6f7420656e6f7567746820746f6b656e206f6e2070617373706f727400000081525060200191505060405180910390fd5b600060046000888152602001908152602001600020601701600101600087815260200190815260200160002060000160009054906101000a900473ffffffffffffffffffffffffffffffffffffffff169050612ac881600154613fb7565b50612af4600254600460008a8152602001908152602001600020601401546145e990919063ffffffff16565b6004600089815260200190815260200160002060140181905550612b62600254600760008473ffffffffffffffffffffffffffffffffffffffff1673ffffffffffffffffffffffffffffffffffffffff168152602001908152602001600020546143a790919063ffffffff16565b600760008373ffffffffffffffffffffffffffffffffffffffff1673ffffffffffffffffffffffffffffffffffffffff168152602001908152602001600020819055506004600088815260200190815260200160002060150160000160008154809291906001019190505550600460008881526020019081526020016000206017016001016000878152602001908152602001600020600460008981526020019081526020016000206015016001016000600460008b81526020019081526020016000206015016000015481526020019081526020016000206000820160009054906101000a900473ffffffffffffffffffffffffffffffffffffffff168160000160006101000a81548173ffffffffffffffffffffffffffffffffffffffff021916908373ffffffffffffffffffffffffffffffffffffffff16021790555060018201816001019080546001816001161561010002031660029004612cc9929190614f0e565b506002820154816002015560038201548160030155600482015481600401556005820160009054906101000a900460ff168160050160006101000a81548160ff021916908315150217905550905050612d2287876141a2565b50600194505050505092915050565b6000600760003373ffffffffffffffffffffffffffffffffffffffff1673ffffffffffffffffffffffffffffffffffffffff16815260200190815260200160002054905090565b6060806060806000606060008060008960046000828152602001908152602001600020601d0160009054906101000a900460ff16612e1e576040517f08c379a000000000000000000000000000000000000000000000000000000000815260040180806020018281038252601b8152602001807f7468652070617373706f727420646f6573206e6f74206578697374000000000081525060200191505060405180910390fd5b612e26614f95565b600460008d8152602001908152602001600020604051806101400160405290816000820160009054906101000a900473ffffffffffffffffffffffffffffffffffffffff1673ffffffffffffffffffffffffffffffffffffffff1673ffffffffffffffffffffffffffffffffffffffff16815260200160018201604051806101e0016040529081600082018054600181600116156101000203166002900480601f016020809104026020016040519081016040528092919081815260200182805460018160011615610100020316600290048015612f455780601f10612f1a57610100808354040283529160200191612f45565b820191906000526020600020905b815481529060010190602001808311612f2857829003601f168201915b50505050508152602001600182018054600181600116156101000203166002900480601f016020809104026020016040519081016040528092919081815260200182805460018160011615610100020316600290048015612fe75780601f10612fbc57610100808354040283529160200191612fe7565b820191906000526020600020905b815481529060010190602001808311612fca57829003601f168201915b50505050508152602001600282018054600181600116156101000203166002900480601f0160208091040260200160405190810160405280929190818152602001828054600181600116156101000203166002900480156130895780601f1061305e57610100808354040283529160200191613089565b820191906000526020600020905b81548152906001019060200180831161306c57829003601f168201915b50505050508152602001600382018054600181600116156101000203166002900480601f01602080910402602001604051908101604052809291908181526020018280546001816001161561010002031660029004801561312b5780601f106131005761010080835404028352916020019161312b565b820191906000526020600020905b81548152906001019060200180831161310e57829003601f168201915b505050505081526020016004820154815260200160058201548152602001600682018054600181600116156101000203166002900480601f0160208091040260200160405190810160405280929190818152602001828054600181600116156101000203166002900480156131e15780601f106131b6576101008083540402835291602001916131e1565b820191906000526020600020905b8154815290600101906020018083116131c457829003601f168201915b50505050508152602001600782018054600181600116156101000203166002900480601f0160208091040260200160405190810160405280929190818152602001828054600181600116156101000203166002900480156132835780601f1061325857610100808354040283529160200191613283565b820191906000526020600020905b81548152906001019060200180831161326657829003601f168201915b50505050508152602001600882018054600181600116156101000203166002900480601f0160208091040260200160405190810160405280929190818152602001828054600181600116156101000203166002900480156133255780601f106132fa57610100808354040283529160200191613325565b820191906000526020600020905b81548152906001019060200180831161330857829003601f168201915b50505050508152602001600982018054600181600116156101000203166002900480601f0160208091040260200160405190810160405280929190818152602001828054600181600116156101000203166002900480156133c75780601f1061339c576101008083540402835291602001916133c7565b820191906000526020600020905b8154815290600101906020018083116133aa57829003601f168201915b50505050508152602001600a8201548152602001600b8201548152602001600c8201548152602001600d82016040518060200160405290816000820154815250508152602001600f82018054600181600116156101000203166002900480601f0160208091040260200160405190810160405280929190818152602001828054600181600116156101000203166002900480156134a55780601f1061347a576101008083540402835291602001916134a5565b820191906000526020600020905b81548152906001019060200180831161348857829003601f168201915b505050505081525050815260200160118201548152602001601282015481526020016013820154815260200160148201548152602001601582016040518060200160405290816000820154815250508152602001601782016040518060400160405290816000820154815260200160028201604051806020016040529081600082015481525050815250508152602001601b82016040518060200160405290816000820154815250508152602001601d820160009054906101000a900460ff161515151581525050905080602001516000015181602001516020015182602001516040015183602001516060015184602001516080015185602001516101c001518660400151876060015188608001518898508797508696508595508393509a509a509a509a509a509a509a509a509a5050509193959799909294969850565b6060600460008381526020019081526020016000206001016002018054600181600116156101000203166002900480601f0160208091040260200160405190810160405280929190818152602001828054600181600116156101000203166002900480156136945780601f1061366957610100808354040283529160200191613694565b820191906000526020600020905b81548152906001019060200180831161367757829003601f168201915b50505050509050919050565b6000606060008060008660046000828152602001908152602001600020601d0160009054906101000a900460ff16613740576040517f08c379a000000000000000000000000000000000000000000000000000000000815260040180806020018281038252601b8152602001807f7468652070617373706f727420646f6573206e6f74206578697374000000000081525060200191505060405180910390fd5b8787600060046000848152602001908152602001600020601501600001541180156137a2575060046000838152602001908152602001600020601501600101600082815260200190815260200160002060050160009054906101000a900460ff165b613814576040517f08c379a000000000000000000000000000000000000000000000000000000000815260040180806020018281038252601b8152602001807f7468652070617373706f727420646f6573206e6f74206578697374000000000081525060200191505060405180910390fd5b61381c614e40565b600460008c815260200190815260200160002060150160010160008b81526020019081526020016000206040518060c00160405290816000820160009054906101000a900473ffffffffffffffffffffffffffffffffffffffff1673ffffffffffffffffffffffffffffffffffffffff1673ffffffffffffffffffffffffffffffffffffffff168152602001600182018054600181600116156101000203166002900480601f0160208091040260200160405190810160405280929190818152602001828054600181600116156101000203166002900480156139405780601f1061391557610100808354040283529160200191613940565b820191906000526020600020905b81548152906001019060200180831161392357829003601f168201915b505050505081526020016002820154815260200160038201548152602001600482015481526020016005820160009054906101000a900460ff16151515158152505090508060000151816020015182604001518360600151846080015183935098509850985098509850505050509295509295909350565b6000823373ffffffffffffffffffffffffffffffffffffffff166004600083815260200190815260200160002060000160009054906101000a900473ffffffffffffffffffffffffffffffffffffffff1673ffffffffffffffffffffffffffffffffffffffff1614613a92576040517f08c379a00000000000000000000000000000000000000000000000000000000081526004018080602001828103825260098152602001807f4e6f74206f776e6572000000000000000000000000000000000000000000000081525060200191505060405180910390fd5b613aeb60046000868152602001908152602001600020601701600101600085815260200190815260200160002060000160009054906101000a900473ffffffffffffffffffffffffffffffffffffffff16600154613fb7565b50613af684846141a2565b50600191505092915050565b6000823373ffffffffffffffffffffffffffffffffffffffff166004600083815260200190815260200160002060000160009054906101000a900473ffffffffffffffffffffffffffffffffffffffff1673ffffffffffffffffffffffffffffffffffffffff1614613bdc576040517f08c379a00000000000000000000000000000000000000000000000000000000081526004018080602001828103825260098152602001807f4e6f74206f776e6572000000000000000000000000000000000000000000000081525060200191505060405180910390fd5b82600660009054906101000a900473ffffffffffffffffffffffffffffffffffffffff1673ffffffffffffffffffffffffffffffffffffffff1663dd62ed3e82306040518363ffffffff1660e01b8152600401808373ffffffffffffffffffffffffffffffffffffffff1673ffffffffffffffffffffffffffffffffffffffff1681526020018273ffffffffffffffffffffffffffffffffffffffff1673ffffffffffffffffffffffffffffffffffffffff1681526020019250505060206040518083038186803b158015613cb057600080fd5b505afa158015613cc4573d6000803e3d6000fd5b505050506040513d6020811015613cda57600080fd5b8101908080519060200190929190505050600760008373ffffffffffffffffffffffffffffffffffffffff1673ffffffffffffffffffffffffffffffffffffffff16815260200190815260200160002054016000541115613da3576040517f08c379a00000000000000000000000000000000000000000000000000000000081526004018080602001828103825260118152602001807f4e6f7420656e6f7567687420746f6b656e00000000000000000000000000000081525060200191505060405180910390fd5b600054600760008673ffffffffffffffffffffffffffffffffffffffff1673ffffffffffffffffffffffffffffffffffffffff168152602001908152602001600020541015613df757613df584614633565b505b613e5f6004600087815260200190815260200160002060140154600760003373ffffffffffffffffffffffffffffffffffffffff1673ffffffffffffffffffffffffffffffffffffffff168152602001908152602001600020546143a790919063ffffffff16565b600760003373ffffffffffffffffffffffffffffffffffffffff1673ffffffffffffffffffffffffffffffffffffffff16815260200190815260200160002081905550613ef6600054600760008773ffffffffffffffffffffffffffffffffffffffff1673ffffffffffffffffffffffffffffffffffffffff168152602001908152602001600020546145e990919063ffffffff16565b600760008673ffffffffffffffffffffffffffffffffffffffff1673ffffffffffffffffffffffffffffffffffffffff168152602001908152602001600020819055506000546004600087815260200190815260200160002060140181905550836004600087815260200190815260200160002060000160006101000a81548173ffffffffffffffffffffffffffffffffffffffff021916908373ffffffffffffffffffffffffffffffffffffffff16021790555060019250505092915050565b60008282600860008373ffffffffffffffffffffffffffffffffffffffff1673ffffffffffffffffffffffffffffffffffffffff16815260200190815260200160002054811115614070576040517f08c379a00000000000000000000000000000000000000000000000000000000081526004018080602001828103825260188152602001807f4e6f7420656e6f75677468206c6f636b656420746f6b656e000000000000000081525060200191505060405180910390fd5b6140c284600860008873ffffffffffffffffffffffffffffffffffffffff1673ffffffffffffffffffffffffffffffffffffffff168152602001908152602001600020546145e990919063ffffffff16565b600860008773ffffffffffffffffffffffffffffffffffffffff1673ffffffffffffffffffffffffffffffffffffffff1681526020019081526020016000208190555061415784600760008873ffffffffffffffffffffffffffffffffffffffff1673ffffffffffffffffffffffffffffffffffffffff168152602001908152602001600020546143a790919063ffffffff16565b600760008773ffffffffffffffffffffffffffffffffffffffff1673ffffffffffffffffffffffffffffffffffffffff16815260200190815260200160002081905550505092915050565b600080600090506000600190505b600160046000878152602001908152602001600020601701600201600001540181101561421d5783600460008781526020019081526020016000206017016002016001016000838152602001908152602001600020541415614210578091505b80806001019150506141b0565b50600060046000868152602001908152602001600020601701600201600001549050600082111561430f57808210156142b05760046000868152602001908152602001600020601701600201600101600082815260200190815260200160002054600460008781526020019081526020016000206017016002016001016000848152602001908152602001600020819055505b600460008681526020019081526020016000206017016002016001016000828152602001908152602001600020600090556004600086815260200190815260200160002060170160020160000160008154809291906001900391905055505b600460008681526020019081526020016000206017016001016000858152602001908152602001600020600080820160006101000a81549073ffffffffffffffffffffffffffffffffffffffff02191690556001820160006143719190614df8565b6002820160009055600382016000905560048201600090556005820160006101000a81549060ff02191690555050505092915050565b600080828401905083811015614425576040517f08c379a000000000000000000000000000000000000000000000000000000000815260040180806020018281038252601b8152602001807f536166654d6174683a206164646974696f6e206f766572666c6f77000000000081525060200191505060405180910390fd5b8091505092915050565b600080600560003373ffffffffffffffffffffffffffffffffffffffff1673ffffffffffffffffffffffffffffffffffffffff16815260200190815260200160002060000154905060008311156145df578083101561453457600560003373ffffffffffffffffffffffffffffffffffffffff1673ffffffffffffffffffffffffffffffffffffffff168152602001908152602001600020600101600082815260200190815260200160002054600560003373ffffffffffffffffffffffffffffffffffffffff1673ffffffffffffffffffffffffffffffffffffffff1681526020019081526020016000206001016000858152602001908152602001600020819055505b600560003373ffffffffffffffffffffffffffffffffffffffff1673ffffffffffffffffffffffffffffffffffffffff168152602001908152602001600020600101600082815260200190815260200160002060009055600560003373ffffffffffffffffffffffffffffffffffffffff1673ffffffffffffffffffffffffffffffffffffffff16815260200190815260200160002060000160008154809291906001900391905055505b6001915050919050565b600061462b83836040518060400160405280601e81526020017f536166654d6174683a207375627472616374696f6e206f766572666c6f770000815250614d38565b905092915050565b6000816000600660009054906101000a900473ffffffffffffffffffffffffffffffffffffffff1673ffffffffffffffffffffffffffffffffffffffff1663dd62ed3e83306040518363ffffffff1660e01b8152600401808373ffffffffffffffffffffffffffffffffffffffff1673ffffffffffffffffffffffffffffffffffffffff1681526020018273ffffffffffffffffffffffffffffffffffffffff1673ffffffffffffffffffffffffffffffffffffffff1681526020019250505060206040518083038186803b15801561470b57600080fd5b505afa15801561471f573d6000803e3d6000fd5b505050506040513d602081101561473557600080fd5b810190808051906020019092919050505010156147ba576040517f08c379a00000000000000000000000000000000000000000000000000000000081526004018080602001828103825260108152602001807f4e6f20746f6b656e20616c6c6f7765640000000000000000000000000000000081525060200191505060405180910390fd5b6000600660009054906101000a900473ffffffffffffffffffffffffffffffffffffffff16905060008173ffffffffffffffffffffffffffffffffffffffff1663dd62ed3e86306040518363ffffffff1660e01b8152600401808373ffffffffffffffffffffffffffffffffffffffff1673ffffffffffffffffffffffffffffffffffffffff1681526020018273ffffffffffffffffffffffffffffffffffffffff1673ffffffffffffffffffffffffffffffffffffffff1681526020019250505060206040518083038186803b15801561489457600080fd5b505afa1580156148a8573d6000803e3d6000fd5b505050506040513d60208110156148be57600080fd5b8101908080519060200190929190505050905061492381600760008873ffffffffffffffffffffffffffffffffffffffff1673ffffffffffffffffffffffffffffffffffffffff168152602001908152602001600020546143a790919063ffffffff16565b600760008773ffffffffffffffffffffffffffffffffffffffff1673ffffffffffffffffffffffffffffffffffffffff168152602001908152602001600020819055508173ffffffffffffffffffffffffffffffffffffffff166323b872dd8630846040518463ffffffff1660e01b8152600401808473ffffffffffffffffffffffffffffffffffffffff1673ffffffffffffffffffffffffffffffffffffffff1681526020018373ffffffffffffffffffffffffffffffffffffffff1673ffffffffffffffffffffffffffffffffffffffff1681526020018281526020019350505050602060405180830381600087803b158015614a2157600080fd5b505af1158015614a35573d6000803e3d6000fd5b505050506040513d6020811015614a4b57600080fd5b8101908080519060200190929190505050507ffa383685af7aee0247276babe7acc9e1ea0531fee8014833fb8a3521ee27e2ff853083600760008a73ffffffffffffffffffffffffffffffffffffffff1673ffffffffffffffffffffffffffffffffffffffff16815260200190815260200160002054604051808573ffffffffffffffffffffffffffffffffffffffff1673ffffffffffffffffffffffffffffffffffffffff1681526020018473ffffffffffffffffffffffffffffffffffffffff1673ffffffffffffffffffffffffffffffffffffffff16815260200183815260200182815260200194505050505060405180910390a160019350505050919050565b600081600760003373ffffffffffffffffffffffffffffffffffffffff1673ffffffffffffffffffffffffffffffffffffffff16815260200190815260200160002054811115614c07576040517f08c379a00000000000000000000000000000000000000000000000000000000081526004018080602001828103825260118152602001807f4e6f7420656e6f7567746820746f6b656e00000000000000000000000000000081525060200191505060405180910390fd5b614c5983600860008773ffffffffffffffffffffffffffffffffffffffff1673ffffffffffffffffffffffffffffffffffffffff168152602001908152602001600020546143a790919063ffffffff16565b600860008673ffffffffffffffffffffffffffffffffffffffff1673ffffffffffffffffffffffffffffffffffffffff16815260200190815260200160002081905550614cee83600760008773ffffffffffffffffffffffffffffffffffffffff1673ffffffffffffffffffffffffffffffffffffffff168152602001908152602001600020546145e990919063ffffffff16565b600760008673ffffffffffffffffffffffffffffffffffffffff1673ffffffffffffffffffffffffffffffffffffffff168152602001908152602001600020819055505092915050565b6000838311158290614de5576040517f08c379a00000000000000000000000000000000000000000000000000000000081526004018080602001828103825283818151815260200191508051906020019080838360005b83811015614daa578082015181840152602081019050614d8f565b50505050905090810190601f168015614dd75780820380516001836020036101000a031916815260200191505b509250505060405180910390fd5b5060008385039050809150509392505050565b50805460018160011615610100020316600290046000825580601f10614e1e5750614e3d565b601f016020900490600052602060002090810190614e3c9190615018565b5b50565b6040518060c00160405280600073ffffffffffffffffffffffffffffffffffffffff168152602001606081526020016000815260200160008152602001600081526020016000151581525090565b828054600181600116156101000203166002900490600052602060002090601f016020900481019282601f10614ecf57805160ff1916838001178555614efd565b82800160010185558215614efd579182015b82811115614efc578251825591602001919060010190614ee1565b5b509050614f0a9190615018565b5090565b828054600181600116156101000203166002900490600052602060002090601f016020900481019282601f10614f475780548555614f84565b82800160010185558215614f8457600052602060002091601f016020900482015b82811115614f83578254825591600101919060010190614f68565b5b509050614f919190615018565b5090565b604051806101400160405280600073ffffffffffffffffffffffffffffffffffffffff168152602001614fc661503d565b815260200160008152602001600081526020016000815260200160008152602001614fef6150b9565b8152602001614ffc6150cc565b81526020016150096150ec565b81526020016000151581525090565b61503a91905b8082111561503657600081600090555060010161501e565b5090565b90565b604051806101e00160405280606081526020016060815260200160608152602001606081526020016000815260200160008152602001606081526020016060815260200160608152602001606081526020016000815260200160008152602001600081526020016150ac6150ff565b8152602001606081525090565b6040518060200160405280600081525090565b6040518060400160405280600081526020016150e6615112565b81525090565b6040518060200160405280600081525090565b6040518060200160405280600081525090565b604051806020016040528060008152509056fea2646970667358221220f6916884ffeae87a2f0a40ff4d583d6342894d9ca3532767d0d25413774e59a064736f6c63430006000033",
  "source": "/*\r\n    SPDX-License-Identifier: UNLICENSED\"\r\n*/\r\npragma solidity >= 0.5.0 < 0.7.0;\r\n//pragma experimental ABIEncoderV2;\r\n\r\nimport {KarToken} from \"./KarToken.sol\";\r\nimport {SafeMath} from \"./libraries/SafeMath.sol\";\r\n\r\ncontract KarPassport {\r\n    using SafeMath for uint;\r\n\r\n    event TransfertToken(address sender, address contractAddress, uint amount, uint senderBalance);\r\n\r\n    /*\r\n        Define an public owner variable. Set it to the creator of the contract when it is initialized.\r\n    */\r\n    uint   PASSPORT_PRICE = 100;\r\n    uint   TOKEN_EVENT_LOCK = 10;\r\n    uint   TOKEN_EVENT_REWARD = 1;\r\n\r\n    uint256 _totalPassport = 0;\r\n    mapping (uint => Passport) _passport;\r\n    mapping (address => Mapping) _passportIdentifiants;\r\n    address _tokenContractAddr;\r\n    mapping (address => uint) _balance;\r\n    mapping (address => uint) _lockedBalance;\r\n\r\n    //Typologies\r\n    struct Mapping {\r\n        uint size;\r\n        mapping(uint => uint) data;\r\n    }\r\n\r\n    struct MappingEvent {\r\n        uint size;\r\n        mapping(uint => Event) data;\r\n    }\r\n\r\n    struct MappingWaitingEvent {\r\n        uint256 size;\r\n        mapping(uint => Event) data;\r\n        MappingIndex index;\r\n    }\r\n\r\n    struct MappingIndex {\r\n        uint size;\r\n        mapping(uint => uint256) data;\r\n    }\r\n\r\n    struct MappingOwner {\r\n        uint size;\r\n        mapping(uint => Owner) data;\r\n    }\r\n\r\n \r\n\r\n    struct Event {\r\n        address sender;\r\n        string description;\r\n        uint256 date;\r\n        uint256 expirationDate;\r\n        uint km;\r\n        bool exists;\r\n    }\r\n\r\n    struct Owner {\r\n        address _owner;\r\n        uint256 acquisitionDate;\r\n    }\r\n\r\n    struct CarIdentity{\r\n        // car info\r\n        string  name;\r\n        string  id;\r\n        string  brand;\r\n        string  modele;\r\n        uint256  year;\r\n        uint256  releaseDate;\r\n        string  oilType;\r\n        string  gearbox;\r\n        string  outColor;\r\n        string  inColor;\r\n        uint  numberOfDoor;\r\n        uint numberOfPlace;\r\n        uint  power;\r\n        Mapping  options;\r\n\r\n        string  numberPlate;\r\n    }\r\n\r\n    struct Passport {\r\n        address owner;\r\n        CarIdentity identity;\r\n\r\n        //car variable\r\n        uint256  km;\r\n        uint256  technicalControlExpirationDate;\r\n        uint256  insuranceExpirationDate;\r\n\r\n        //contract variable\r\n        uint256 balance;\r\n\r\n        //car event\r\n        MappingEvent events;\r\n        MappingWaitingEvent waitingEvents;\r\n        MappingOwner historyOwners;\r\n\r\n        bool exists;\r\n    }\r\n\r\n\r\n    /*\r\n        Create a modifier that throws an error if the sender has no allowance.\r\n    */\r\n    modifier requireTokenAllowance(address sender) {\r\n        require(\r\n            KarToken(_tokenContractAddr).allowance(sender, address(this)) >= 0,\r\n            \"No token allowed\"\r\n        );\r\n        _;\r\n    }\r\n\r\n    /*\r\n        Create a modifier that throws an error if not the event creator.\r\n    */\r\n    modifier requireEventCreator(uint256 idPassport, uint256 idEvent) {\r\n        require(\r\n            _passport[idPassport].waitingEvents.data[idEvent].sender >= msg.sender,\r\n            \"No token allowed\"\r\n        );\r\n        _;\r\n    }\r\n\r\n    /*\r\n        Create a modifier that throws an error if the msg.sender has not the require token number.\r\n    */\r\n    modifier requireToken(uint numToken) {\r\n        require(\r\n            numToken<=_balance[msg.sender],\r\n            \"Not enougth token\"\r\n        );\r\n        _;\r\n    }\r\n\r\n    /*\r\n        Create a modifier that throws an error if the msg.sender has not the require token number.\r\n    */\r\n    modifier requireLockedToken(address sender, uint numToken) {\r\n        require(\r\n            numToken<=_lockedBalance[sender],\r\n            \"Not enougth locked token\"\r\n        );\r\n        _;\r\n    }\r\n\r\n    /*\r\n        Create a modifier that throws an error if the msg.sender has not the require token number.\r\n    */\r\n    modifier requirePassportToken(uint256 idPassport, uint numToken) {\r\n        require(\r\n            _passport[idPassport].balance>=numToken,\r\n            \"Not enougth token on passport\"\r\n        );\r\n        _;\r\n    }\r\n\r\n    /*\r\n        Create a modifier that throws an error if the msg.sender is not the owner.\r\n    */\r\n    modifier requireOwner(uint256 passportId) {\r\n        require(\r\n            _passport[passportId].owner == msg.sender,\r\n            \"Not owner\"\r\n        );\r\n        _;\r\n    }\r\n\r\n    /*\r\n        Create a modifier that throws an error if the acquirer has not enougth token.\r\n    */\r\n    modifier requirePassportPrice(address acquirer){\r\n        require(\r\n            PASSPORT_PRICE<=_balance[acquirer]+KarToken(_tokenContractAddr).allowance(acquirer, address(this)),\r\n            \"Not enought token\"\r\n        );\r\n        _;\r\n    }\r\n\r\n    /*\r\n        Create a modifier that throws an error if the acquirer has not enougth token.\r\n    */\r\n    modifier requireAvailableToken(address sender, uint numToken){\r\n        require(\r\n            numToken<=_balance[sender]+KarToken(_tokenContractAddr).allowance(sender, address(this)),\r\n            \"Not enought token\"\r\n        );\r\n        _;\r\n    }\r\n\r\n    /*\r\n        Create a modifier that throws an error if the passport does not exist.\r\n    */\r\n    modifier requireExists(uint256 passportId) {\r\n        require(\r\n            _passport[passportId].exists,\r\n            \"the passport does not exist\"\r\n        );\r\n        _;\r\n    }\r\n\r\n    /*\r\n        Create a modifier that throws an error if event does not exist.\r\n    */\r\n    modifier requireEventExists(uint256 passportId, uint256 idEvent) {\r\n        require(\r\n            _passport[passportId].events.size > 0 && _passport[passportId].events.data[idEvent].exists,\r\n            \"the passport does not exist\"\r\n        );\r\n        _;\r\n    }\r\n\r\n    /*\r\n        Create a modifier that throws an error if waiting event does not exist.\r\n    */\r\n    modifier requireWaitingEventExists(uint256 passportId, uint idEvent) {\r\n        require(\r\n            _passport[passportId].waitingEvents.size > 0 && _passport[passportId].waitingEvents.data[idEvent].exists,\r\n            \"the passport does not exist\"\r\n        );\r\n        _;\r\n    }\r\n\r\n\r\n    /*\r\n        constructor\r\n    */\r\n    constructor(address tokenContractAddr)\r\n    public payable\r\n    {\r\n        _tokenContractAddr = tokenContractAddr;\r\n    }\r\n\r\n    /*\r\n        createPassport\r\n    */\r\n    function createPassport(string memory name,\r\n                            string memory id,\r\n                            string memory brand,\r\n                            string memory modele,\r\n                            uint256 year,\r\n                            string memory numberPlate)\r\n    public returns (uint256)\r\n    {\r\n        require(_balance[msg.sender] >= PASSPORT_PRICE, \"Not enought token\");\r\n\r\n        _balance[msg.sender] = _balance[msg.sender].sub(PASSPORT_PRICE);\r\n\r\n        _totalPassport++;\r\n        _passport[_totalPassport].owner = msg.sender;\r\n        _passport[_totalPassport].identity.name = name;\r\n        _passport[_totalPassport].identity.id = id;\r\n        _passport[_totalPassport].identity.brand = brand;\r\n        _passport[_totalPassport].identity.modele = modele;\r\n        _passport[_totalPassport].identity.year = year;\r\n        _passport[_totalPassport].identity.numberPlate = numberPlate;\r\n        _passport[_totalPassport].balance = PASSPORT_PRICE;\r\n        _passport[_totalPassport].exists = true;\r\n\r\n        //Update search with address index\r\n        _passportIdentifiants[msg.sender].size++;\r\n        uint indexPassportId = _passportIdentifiants[msg.sender].size;\r\n        _passportIdentifiants[msg.sender].data[indexPassportId] = _totalPassport;\r\n\r\n        return _totalPassport;\r\n    }\r\n\r\n    /**\r\n     * deletePassport\r\n     */\r\n    function deletePassport(uint256 passportId)\r\n    public requireOwner(passportId) returns (bool){\r\n\r\n        _balance[msg.sender] = _balance[msg.sender].add(_passport[passportId].balance);\r\n        delete(_passport[passportId]);\r\n\r\n        //delete from owner table\r\n        uint indexToDelete = 0;\r\n        for(uint i = 1; i < _passportIdentifiants[msg.sender].size+1; i++) {\r\n            if(_passportIdentifiants[msg.sender].data[i]==passportId){\r\n                indexToDelete = i;\r\n            }\r\n        }\r\n\r\n        return _deleteMappingItem(indexToDelete);\r\n    }\r\n\r\n    /**\r\n        _deleteMappingItem\r\n     */\r\n    function _deleteMappingItem(uint indexToDelete)\r\n    private returns (bool){\r\n        uint indexMax = _passportIdentifiants[msg.sender].size;\r\n        if(indexToDelete>0){\r\n            if(indexToDelete < indexMax){\r\n                _passportIdentifiants[msg.sender].data[indexToDelete] = _passportIdentifiants[msg.sender].data[indexMax];\r\n            }\r\n            delete(_passportIdentifiants[msg.sender].data[indexMax]);\r\n            _passportIdentifiants[msg.sender].size--;\r\n        }\r\n\r\n        return true;\r\n    }\r\n\r\n    /**\r\n     * transferAllowedToken\r\n     */\r\n    function transferAllowedToken()\r\n    public returns (bool) {\r\n        return _transferAllowedToken(msg.sender);\r\n    }\r\n\r\n    /**\r\n     * _transferAllowedToken\r\n     */\r\n    function _transferAllowedToken(address sender)\r\n    private requireTokenAllowance(sender) returns (bool){\r\n        KarToken token = KarToken(_tokenContractAddr);\r\n        uint numToken = token.allowance(sender, address(this));\r\n         _balance[sender] = _balance[sender].add(numToken);\r\n        token.transferFrom(sender, address(this), numToken);\r\n        emit TransfertToken(sender, address(this), numToken, _balance[sender]);\r\n        return true;\r\n    }\r\n\r\n    /**\r\n     * withdrawToken\r\n     */\r\n    function withdrawToken(uint numToken)\r\n    public requireToken(numToken) returns (bool){\r\n        KarToken token = KarToken(_tokenContractAddr);\r\n        token.transfer(msg.sender, numToken);\r\n        _balance[msg.sender] = _balance[msg.sender].sub(numToken);\r\n        return true;\r\n    }\r\n\r\n    /**\r\n     * transferPassport\r\n     */\r\n    function transferPassport(uint256 passportId, address acquirer)\r\n    public requireOwner(passportId) requirePassportPrice(acquirer) returns (bool){\r\n\r\n        if(_balance[acquirer] < PASSPORT_PRICE){\r\n            _transferAllowedToken(acquirer);\r\n        }\r\n        _balance[msg.sender] = _balance[msg.sender].add(_passport[passportId].balance);\r\n\r\n        _balance[acquirer] = _balance[acquirer].sub(PASSPORT_PRICE);\r\n        _passport[passportId].balance = PASSPORT_PRICE;\r\n        _passport[passportId].owner = acquirer;\r\n\r\n        return true;\r\n    }\r\n\r\n    /**\r\n     * passportIdentifiants\r\n     */\r\n    function passportIdentifiants()\r\n    public view returns (uint256[] memory){\r\n        uint256[] memory memoryArray = new uint256[](_passportIdentifiants[msg.sender].size);\r\n\r\n        for(uint i = 0; i < _passportIdentifiants[msg.sender].size; i++) {\r\n            memoryArray[i] = _passportIdentifiants[msg.sender].data[i+1];\r\n        }\r\n        return memoryArray;\r\n    }\r\n\r\n    /**\r\n     * @dev Returns the number of event\r\n     */\r\n    function eventsNumber(uint256 idPassport) public view returns (uint) {\r\n        return _passport[idPassport].events.size;\r\n    }\r\n\r\n    /**\r\n        passportEvent\r\n     */\r\n    function passportEvent(uint256 idPassport, uint eventIndex)\r\n    public view requireExists(idPassport) requireEventExists(idPassport, eventIndex)\r\n    returns (address, string memory, uint256, uint256, uint) {\r\n        Event memory e = _passport[idPassport].events.data[eventIndex];\r\n         return (e.sender,\r\n                e.description,\r\n                e.date,\r\n                e.expirationDate,\r\n                e.km);\r\n    }\r\n\r\n    /**\r\n    * passportWaitingEvents\r\n    */\r\n    function passportWaitingEvents(uint256 idPassport, uint eventIndex)\r\n    public view requireExists(idPassport) requireWaitingEventExists(idPassport, eventIndex)\r\n    returns (address, string memory, uint256, uint256, uint) {\r\n\r\n        Event memory e = _passport[idPassport].waitingEvents.data[eventIndex];\r\n         return (e.sender,\r\n                e.description,\r\n                e.date,\r\n                e.expirationDate,\r\n                e.km);\r\n    }\r\n\r\n    /**\r\n    * passportWaitingEventsIDs\r\n    */\r\n    function passportWaitingEventsIDs(uint256 idPassport)\r\n    public view requireExists(idPassport)\r\n    returns (uint256[] memory){\r\n        uint256[] memory memoryArray = new uint256[](_passport[idPassport].waitingEvents.index.size);\r\n\r\n        for(uint i = 0; i < _passport[idPassport].waitingEvents.index.size; i++) {\r\n            if(msg.sender==_passport[idPassport].waitingEvents.data[i+1].sender ||\r\n                msg.sender==_passport[idPassport].owner){\r\n                memoryArray[i] = _passport[idPassport].waitingEvents.index.data[i+1];\r\n            }\r\n        }\r\n        return memoryArray;\r\n    }\r\n\r\n    /**\r\n    * createEvent\r\n    */\r\n    function createEvent(uint256 idPassport,\r\n                        string memory description,\r\n                        uint256 date,\r\n                        uint256 expirationDate,\r\n                        uint km)\r\n    public requireToken(TOKEN_EVENT_LOCK) returns (bool){\r\n        _lockToken(msg.sender, TOKEN_EVENT_LOCK);\r\n\r\n        _passport[idPassport].waitingEvents.size++;\r\n        _passport[idPassport].waitingEvents.data[_passport[idPassport].waitingEvents.size].sender = msg.sender;\r\n        _passport[idPassport].waitingEvents.data[_passport[idPassport].waitingEvents.size].description = description;\r\n        _passport[idPassport].waitingEvents.data[_passport[idPassport].waitingEvents.size].date = date;\r\n        _passport[idPassport].waitingEvents.data[_passport[idPassport].waitingEvents.size].expirationDate = expirationDate;\r\n        _passport[idPassport].waitingEvents.data[_passport[idPassport].waitingEvents.size].km = km;\r\n        _passport[idPassport].waitingEvents.data[_passport[idPassport].waitingEvents.size].exists = true;\r\n\r\n        _passport[idPassport].waitingEvents.index.size++;\r\n        uint256 idEvent = _passport[idPassport].waitingEvents.size;\r\n        _passport[idPassport].waitingEvents.index.data[_passport[idPassport].waitingEvents.index.size] = idEvent;\r\n        return true;\r\n    }\r\n\r\n    /**\r\n    * approveEvent\r\n    */\r\n    function approveEvent(uint256 idPassport, uint idEvent)\r\n    public requireOwner(idPassport) requirePassportToken(idPassport, TOKEN_EVENT_REWARD) returns (bool)\r\n    {\r\n         address eventSender = _passport[idPassport].waitingEvents.data[idEvent].sender;\r\n        _unlockToken(eventSender, TOKEN_EVENT_LOCK);\r\n        _passport[idPassport].balance = _passport[idPassport].balance.sub(TOKEN_EVENT_REWARD);\r\n        _balance[eventSender] = _balance[eventSender].add(TOKEN_EVENT_REWARD);\r\n\r\n        _passport[idPassport].events.size++;\r\n        _passport[idPassport].events.data[_passport[idPassport].events.size] = _passport[idPassport].waitingEvents.data[idEvent];\r\n\r\n        _deleteWaitingEvent(idPassport, idEvent);\r\n        return true;\r\n    }\r\n\r\n    /**\r\n    * approveEvent\r\n    */\r\n    function dismissEvent(uint256 idPassport, uint idEvent)\r\n    public requireOwner(idPassport) returns (bool)\r\n    {\r\n        _unlockToken(_passport[idPassport].waitingEvents.data[idEvent].sender, TOKEN_EVENT_LOCK);\r\n        _deleteWaitingEvent(idPassport, idEvent);\r\n        return true;\r\n    }\r\n\r\n    /**\r\n    * approveEvent\r\n    */\r\n    function cancelEvent(uint256 idPassport, uint idEvent)\r\n    public requireEventCreator(idPassport, idEvent) returns (bool)\r\n    {\r\n        _unlockToken(_passport[idPassport].waitingEvents.data[idEvent].sender, TOKEN_EVENT_LOCK);\r\n        _deleteWaitingEvent(idPassport, idEvent);\r\n        return true;\r\n    }\r\n\r\n    /**\r\n    * _deleteWaitingEvent\r\n    */\r\n    function _deleteWaitingEvent(uint256 idPassport, uint idToDelete)\r\n    private returns (bool)\r\n    {\r\n        //retreive idToDelete from index table\r\n        uint indexToDelete = 0;\r\n        for(uint i = 1; i < _passport[idPassport].waitingEvents.index.size+1; i++) {\r\n            if(_passport[idPassport].waitingEvents.index.data[i]==idToDelete){\r\n                indexToDelete = i;\r\n            }\r\n        }\r\n\r\n        //delete from index table\r\n        uint indexMax = _passport[idPassport].waitingEvents.index.size;\r\n        if(indexToDelete>0){\r\n            if(indexToDelete < indexMax){\r\n                _passport[idPassport].waitingEvents.index.data[indexToDelete] = _passport[idPassport].waitingEvents.index.data[indexMax];\r\n            }\r\n            delete(_passport[idPassport].waitingEvents.index.data[indexMax]);\r\n            _passport[idPassport].waitingEvents.index.size--;\r\n        }\r\n\r\n        //delete the waiting event\r\n        delete(_passport[idPassport].waitingEvents.data[idToDelete]);\r\n    }\r\n\r\n    /**\r\n    * _lockToken\r\n    */\r\n    function _lockToken(address sender, uint numToken)\r\n    private requireToken(numToken) returns (bool)\r\n    {\r\n        _lockedBalance[sender] = _lockedBalance[sender].add(numToken);\r\n        _balance[sender] = _balance[sender].sub(numToken);\r\n    }\r\n\r\n    /**\r\n    * _unlockToken\r\n    */\r\n    function _unlockToken(address sender, uint numToken)\r\n    private requireLockedToken(sender, numToken) returns (bool)\r\n    {\r\n        _lockedBalance[sender] = _lockedBalance[sender].sub(numToken);\r\n        _balance[sender] = _balance[sender].add(numToken);\r\n    }\r\n\r\n\r\n    /**\r\n     * @dev Returns the name\r\n     */\r\n    function balance(uint256 idPassport) public view returns (uint256) {\r\n        return _passport[idPassport].balance;\r\n    }\r\n\r\n    /**\r\n     * balance\r\n     */\r\n    function balance() public view returns (uint) {\r\n        return _balance[msg.sender];\r\n    }\r\n\r\n    /**\r\n     * balance\r\n     */\r\n    function lockedBalance() public view returns (uint) {\r\n        return _lockedBalance[msg.sender];\r\n    }\r\n\r\n    /**\r\n     * passport\r\n     **/\r\n    function passport(uint256 identifiant)\r\n    public view requireExists(identifiant) returns (string memory, string memory, string memory, string memory, uint256, string memory, uint256, uint256, uint256)\r\n    {\r\n        Passport memory p = _passport[identifiant];\r\n        return (p.identity.name,\r\n                p.identity.id,\r\n                p.identity.brand,\r\n                p.identity.modele,\r\n                p.identity.year,\r\n                p.identity.numberPlate,\r\n                p.km,\r\n                p.technicalControlExpirationDate,\r\n                p.insuranceExpirationDate);\r\n    }\r\n\r\n\r\n    /**\r\n     * @dev Returns the name\r\n     */\r\n    function name(uint256 idPassport) public view returns (string memory) {\r\n        return _passport[idPassport].identity.name;\r\n    }\r\n\r\n\r\n    /**\r\n     * @dev Returns the id\r\n     */\r\n    function id(uint256 idPassport) public view returns (string memory) {\r\n        return _passport[idPassport].identity.id;\r\n    }\r\n\r\n    /**\r\n     * @dev Returns the brand\r\n     */\r\n    function brand(uint256 idPassport) public view returns (string memory) {\r\n        return _passport[idPassport].identity.brand;\r\n    }\r\n\r\n    /**\r\n     * @dev Returns the modele\r\n     */\r\n    function modele(uint256 idPassport) public view returns (string memory) {\r\n        return _passport[idPassport].identity.modele;\r\n    }\r\n\r\n\r\n}\r\n",
  "sourcePath": "C:/Users/cdurb/Dropbox/CADAERO/Projets/KarPassport/KarPass/contracts/KarPassport.sol",
  "compiler": {
    "name": "solc",
    "version": "0.6.0+commit.26b70077.Emscripten.clang"
  },
  "schemaVersion": "3.0.20",
  "updatedAt": "2020-10-20T15:50:07.382Z",
  "networkType": "ethereum",
  "devdoc": {
    "methods": {
      "balance(uint256)": {
        "details": "Returns the name"
      },
      "brand(uint256)": {
        "details": "Returns the brand"
      },
      "eventsNumber(uint256)": {
        "details": "Returns the number of event"
      },
      "id(uint256)": {
        "details": "Returns the id"
      },
      "modele(uint256)": {
        "details": "Returns the modele"
      },
      "name(uint256)": {
        "details": "Returns the name"
      }
    }
  },
  "userdoc": {
    "methods": {
      "approveEvent(uint256,uint256)": {
        "notice": "approveEvent"
      },
      "balance()": {
        "notice": "balance"
      },
      "cancelEvent(uint256,uint256)": {
        "notice": "approveEvent"
      },
      "createEvent(uint256,string,uint256,uint256,uint256)": {
        "notice": "createEvent"
      },
      "deletePassport(uint256)": {
        "notice": "deletePassport"
      },
      "dismissEvent(uint256,uint256)": {
        "notice": "approveEvent"
      },
      "lockedBalance()": {
        "notice": "balance"
      },
      "passport(uint256)": {
        "notice": "passport*"
      },
      "passportEvent(uint256,uint256)": {
        "notice": "passportEvent"
      },
      "passportIdentifiants()": {
        "notice": "passportIdentifiants"
      },
      "passportWaitingEvents(uint256,uint256)": {
        "notice": "passportWaitingEvents"
      },
      "passportWaitingEventsIDs(uint256)": {
        "notice": "passportWaitingEventsIDs"
      },
      "transferAllowedToken()": {
        "notice": "transferAllowedToken"
      },
      "transferPassport(uint256,address)": {
        "notice": "transferPassport"
      },
      "withdrawToken(uint256)": {
        "notice": "withdrawToken"
      }
    }
  }
}