{
  "contractName": "KarPassport",
  "abi": [
    {
      "inputs": [
        {
          "internalType": "address",
          "name": "tokenContractAddr",
          "type": "address"
        }
      ],
      "stateMutability": "payable",
      "type": "constructor",
      "payable": true
    },
    {
      "anonymous": false,
      "inputs": [
        {
          "indexed": false,
          "internalType": "address",
          "name": "sender",
          "type": "address"
        },
        {
          "indexed": false,
          "internalType": "address",
          "name": "contractAddress",
          "type": "address"
        },
        {
          "indexed": false,
          "internalType": "uint256",
          "name": "amount",
          "type": "uint256"
        },
        {
          "indexed": false,
          "internalType": "uint256",
          "name": "senderBalance",
          "type": "uint256"
        }
      ],
      "name": "TransfertToken",
      "type": "event"
    },
    {
      "inputs": [
        {
          "internalType": "string",
          "name": "name",
          "type": "string"
        },
        {
          "internalType": "string",
          "name": "id",
          "type": "string"
        },
        {
          "internalType": "string",
          "name": "brand",
          "type": "string"
        },
        {
          "internalType": "string",
          "name": "modele",
          "type": "string"
        },
        {
          "internalType": "uint256",
          "name": "year",
          "type": "uint256"
        },
        {
          "internalType": "string",
          "name": "numberPlate",
          "type": "string"
        }
      ],
      "name": "createPassport",
      "outputs": [
        {
          "internalType": "uint256",
          "name": "",
          "type": "uint256"
        }
      ],
      "stateMutability": "nonpayable",
      "type": "function"
    },
    {
      "inputs": [
        {
          "internalType": "address",
          "name": "owner",
          "type": "address"
        }
      ],
      "name": "totalPassport",
      "outputs": [
        {
          "internalType": "uint256",
          "name": "",
          "type": "uint256"
        }
      ],
      "stateMutability": "view",
      "type": "function",
      "constant": true
    },
    {
      "inputs": [
        {
          "internalType": "uint256",
          "name": "passportId",
          "type": "uint256"
        }
      ],
      "name": "deletePassport",
      "outputs": [
        {
          "internalType": "bool",
          "name": "",
          "type": "bool"
        }
      ],
      "stateMutability": "nonpayable",
      "type": "function"
    },
    {
      "inputs": [],
      "name": "transferAllowedToken",
      "outputs": [
        {
          "internalType": "bool",
          "name": "",
          "type": "bool"
        }
      ],
      "stateMutability": "nonpayable",
      "type": "function"
    },
    {
      "inputs": [
        {
          "internalType": "uint256",
          "name": "numToken",
          "type": "uint256"
        }
      ],
      "name": "withdrawToken",
      "outputs": [
        {
          "internalType": "bool",
          "name": "",
          "type": "bool"
        }
      ],
      "stateMutability": "nonpayable",
      "type": "function"
    },
    {
      "inputs": [
        {
          "internalType": "uint256",
          "name": "passportId",
          "type": "uint256"
        },
        {
          "internalType": "address",
          "name": "acquirer",
          "type": "address"
        }
      ],
      "name": "transferPassport",
      "outputs": [
        {
          "internalType": "bool",
          "name": "",
          "type": "bool"
        }
      ],
      "stateMutability": "nonpayable",
      "type": "function"
    },
    {
      "inputs": [],
      "name": "passportIdentifiants",
      "outputs": [
        {
          "internalType": "uint256[]",
          "name": "",
          "type": "uint256[]"
        }
      ],
      "stateMutability": "view",
      "type": "function",
      "constant": true
    },
    {
      "inputs": [
        {
          "internalType": "uint256",
          "name": "idPassport",
          "type": "uint256"
        }
      ],
      "name": "eventsNumber",
      "outputs": [
        {
          "internalType": "uint256",
          "name": "",
          "type": "uint256"
        }
      ],
      "stateMutability": "view",
      "type": "function",
      "constant": true
    },
    {
      "inputs": [
        {
          "internalType": "uint256",
          "name": "idPassport",
          "type": "uint256"
        },
        {
          "internalType": "uint256",
          "name": "eventIndex",
          "type": "uint256"
        }
      ],
      "name": "passportEvent",
      "outputs": [
        {
          "internalType": "address",
          "name": "",
          "type": "address"
        },
        {
          "internalType": "string",
          "name": "",
          "type": "string"
        },
        {
          "internalType": "uint256",
          "name": "",
          "type": "uint256"
        },
        {
          "internalType": "uint256",
          "name": "",
          "type": "uint256"
        },
        {
          "internalType": "uint256",
          "name": "",
          "type": "uint256"
        }
      ],
      "stateMutability": "view",
      "type": "function",
      "constant": true
    },
    {
      "inputs": [
        {
          "internalType": "uint256",
          "name": "idPassport",
          "type": "uint256"
        },
        {
          "internalType": "uint256",
          "name": "eventIndex",
          "type": "uint256"
        }
      ],
      "name": "passportWaitingEvents",
      "outputs": [
        {
          "internalType": "address",
          "name": "",
          "type": "address"
        },
        {
          "internalType": "string",
          "name": "",
          "type": "string"
        },
        {
          "internalType": "uint256",
          "name": "",
          "type": "uint256"
        },
        {
          "internalType": "uint256",
          "name": "",
          "type": "uint256"
        },
        {
          "internalType": "uint256",
          "name": "",
          "type": "uint256"
        }
      ],
      "stateMutability": "view",
      "type": "function",
      "constant": true
    },
    {
      "inputs": [
        {
          "internalType": "uint256",
          "name": "idPassport",
          "type": "uint256"
        }
      ],
      "name": "passportWaitingEventsIDs",
      "outputs": [
        {
          "internalType": "uint256[]",
          "name": "",
          "type": "uint256[]"
        }
      ],
      "stateMutability": "view",
      "type": "function",
      "constant": true
    },
    {
      "inputs": [
        {
          "internalType": "uint256",
          "name": "idPassport",
          "type": "uint256"
        },
        {
          "internalType": "string",
          "name": "description",
          "type": "string"
        },
        {
          "internalType": "uint256",
          "name": "date",
          "type": "uint256"
        },
        {
          "internalType": "uint256",
          "name": "expirationDate",
          "type": "uint256"
        },
        {
          "internalType": "uint256",
          "name": "km",
          "type": "uint256"
        }
      ],
      "name": "createEvent",
      "outputs": [
        {
          "internalType": "bool",
          "name": "",
          "type": "bool"
        }
      ],
      "stateMutability": "nonpayable",
      "type": "function"
    },
    {
      "inputs": [
        {
          "internalType": "uint256",
          "name": "idPassport",
          "type": "uint256"
        },
        {
          "internalType": "uint256",
          "name": "idEvent",
          "type": "uint256"
        }
      ],
      "name": "approveEvent",
      "outputs": [
        {
          "internalType": "bool",
          "name": "",
          "type": "bool"
        }
      ],
      "stateMutability": "nonpayable",
      "type": "function"
    },
    {
      "inputs": [
        {
          "internalType": "uint256",
          "name": "idPassport",
          "type": "uint256"
        },
        {
          "internalType": "uint256",
          "name": "idEvent",
          "type": "uint256"
        }
      ],
      "name": "dismissEvent",
      "outputs": [
        {
          "internalType": "bool",
          "name": "",
          "type": "bool"
        }
      ],
      "stateMutability": "nonpayable",
      "type": "function"
    },
    {
      "inputs": [
        {
          "internalType": "uint256",
          "name": "idPassport",
          "type": "uint256"
        },
        {
          "internalType": "uint256",
          "name": "idEvent",
          "type": "uint256"
        }
      ],
      "name": "cancelEvent",
      "outputs": [
        {
          "internalType": "bool",
          "name": "",
          "type": "bool"
        }
      ],
      "stateMutability": "nonpayable",
      "type": "function"
    },
    {
      "inputs": [
        {
          "internalType": "uint256",
          "name": "idPassport",
          "type": "uint256"
        }
      ],
      "name": "balance",
      "outputs": [
        {
          "internalType": "uint256",
          "name": "",
          "type": "uint256"
        }
      ],
      "stateMutability": "view",
      "type": "function",
      "constant": true
    },
    {
      "inputs": [
        {
          "internalType": "address",
          "name": "sender",
          "type": "address"
        }
      ],
      "name": "balanceOf",
      "outputs": [
        {
          "internalType": "uint256",
          "name": "",
          "type": "uint256"
        }
      ],
      "stateMutability": "view",
      "type": "function",
      "constant": true
    },
    {
      "inputs": [
        {
          "internalType": "address",
          "name": "sender",
          "type": "address"
        }
      ],
      "name": "lockedBalance",
      "outputs": [
        {
          "internalType": "uint256",
          "name": "",
          "type": "uint256"
        }
      ],
      "stateMutability": "view",
      "type": "function",
      "constant": true
    },
    {
      "inputs": [
        {
          "internalType": "uint256",
          "name": "identifiant",
          "type": "uint256"
        }
      ],
      "name": "passport",
      "outputs": [
        {
          "internalType": "string",
          "name": "",
          "type": "string"
        },
        {
          "internalType": "string",
          "name": "",
          "type": "string"
        },
        {
          "internalType": "string",
          "name": "",
          "type": "string"
        },
        {
          "internalType": "string",
          "name": "",
          "type": "string"
        },
        {
          "internalType": "uint256",
          "name": "",
          "type": "uint256"
        },
        {
          "internalType": "string",
          "name": "",
          "type": "string"
        },
        {
          "internalType": "uint256",
          "name": "",
          "type": "uint256"
        },
        {
          "internalType": "uint256",
          "name": "",
          "type": "uint256"
        },
        {
          "internalType": "uint256",
          "name": "",
          "type": "uint256"
        }
      ],
      "stateMutability": "view",
      "type": "function",
      "constant": true
    },
    {
      "inputs": [
        {
          "internalType": "uint256",
          "name": "idPassport",
          "type": "uint256"
        }
      ],
      "name": "name",
      "outputs": [
        {
          "internalType": "string",
          "name": "",
          "type": "string"
        }
      ],
      "stateMutability": "view",
      "type": "function",
      "constant": true
    },
    {
      "inputs": [
        {
          "internalType": "uint256",
          "name": "idPassport",
          "type": "uint256"
        }
      ],
      "name": "id",
      "outputs": [
        {
          "internalType": "string",
          "name": "",
          "type": "string"
        }
      ],
      "stateMutability": "view",
      "type": "function",
      "constant": true
    },
    {
      "inputs": [
        {
          "internalType": "uint256",
          "name": "idPassport",
          "type": "uint256"
        }
      ],
      "name": "brand",
      "outputs": [
        {
          "internalType": "string",
          "name": "",
          "type": "string"
        }
      ],
      "stateMutability": "view",
      "type": "function",
      "constant": true
    },
    {
      "inputs": [
        {
          "internalType": "uint256",
          "name": "idPassport",
          "type": "uint256"
        }
      ],
      "name": "modele",
      "outputs": [
        {
          "internalType": "string",
          "name": "",
          "type": "string"
        }
      ],
      "stateMutability": "view",
      "type": "function",
      "constant": true
    }
  ],
  "bytecode": "0x60806040526064600055600a6001556001600255600060035560405161531e38038061531e8339818101604052602081101561003a57600080fd5b810190808051906020019092919050505080600660006101000a81548173ffffffffffffffffffffffffffffffffffffffff021916908373ffffffffffffffffffffffffffffffffffffffff160217905550506152828061009c6000396000f3fe608060405234801561001057600080fd5b506004361061014c5760003560e01c8063809187be116100c3578063b733b9511161007c578063b733b95114610bd3578063bedf7e1914610e46578063c382bb9e14610eed578063c663f0ce14610f45578063db7620a61461103e578063fdf3ad8a1461108e5761014c565b8063809187be146105a35780638f5ffdeb1461069c5780639a224567146106fb5780639ae697bf14610a305780639ec4b59a14610a88578063af1194be14610b835761014c565b80634803d095116101155780634803d0951461037757806350baa622146103b957806370a08231146103ff5780637894dac2146104575780637b247810146104795780637d3c40c8146104fc5761014c565b8062ad800c1461015157806308eba844146101f857806311af161c146102485780631575c425146102ef57806347bb89f014610335575b600080fd5b61017d6004803603602081101561016757600080fd5b81019080803590602001909291905050506110f4565b6040518080602001828103825283818151815260200191508051906020019080838360005b838110156101bd5780820151818401526020810190506101a2565b50505050905090810190601f1680156101ea5780820380516001836020036101000a031916815260200191505b509250505060405180910390f35b61022e6004803603604081101561020e57600080fd5b8101908080359060200190929190803590602001909291905050506111af565b604051808215151515815260200191505060405180910390f35b6102746004803603602081101561025e57600080fd5b8101908080359060200190929190505050611313565b6040518080602001828103825283818151815260200191508051906020019080838360005b838110156102b4578082015181840152602081019050610299565b50505050905090810190601f1680156102e15780820380516001836020036101000a031916815260200191505b509250505060405180910390f35b61031b6004803603602081101561030557600080fd5b81019080803590602001909291905050506113ce565b604051808215151515815260200191505060405180910390f35b6103616004803603602081101561034b57600080fd5b81019080803590602001909291905050506117a6565b6040518082815260200191505060405180910390f35b6103a36004803603602081101561038d57600080fd5b81019080803590602001909291905050506117c6565b6040518082815260200191505060405180910390f35b6103e5600480360360208110156103cf57600080fd5b81019080803590602001909291905050506117e9565b604051808215151515815260200191505060405180910390f35b6104416004803603602081101561041557600080fd5b81019080803573ffffffffffffffffffffffffffffffffffffffff169060200190929190505050611a2b565b6040518082815260200191505060405180910390f35b61045f611a74565b604051808215151515815260200191505060405180910390f35b6104a56004803603602081101561048f57600080fd5b8101908080359060200190929190505050611a84565b6040518080602001828103825283818151815260200191508051906020019060200280838360005b838110156104e85780820151818401526020810190506104cd565b505050509050019250505060405180910390f35b6105286004803603602081101561051257600080fd5b8101908080359060200190929190505050611ce9565b6040518080602001828103825283818151815260200191508051906020019080838360005b8381101561056857808201518184015260208101905061054d565b50505050905090810190601f1680156105955780820380516001836020036101000a031916815260200191505b509250505060405180910390f35b6105d9600480360360408110156105b957600080fd5b810190808035906020019092919080359060200190929190505050611da4565b604051808673ffffffffffffffffffffffffffffffffffffffff1673ffffffffffffffffffffffffffffffffffffffff16815260200180602001858152602001848152602001838152602001828103825286818151815260200191508051906020019080838360005b8381101561065d578082015181840152602081019050610642565b50505050905090810190601f16801561068a5780820380516001836020036101000a031916815260200191505b50965050505050505060405180910390f35b6106a46120bc565b6040518080602001828103825283818151815260200191508051906020019060200280838360005b838110156106e75780820151818401526020810190506106cc565b505050509050019250505060405180910390f35b610a1a600480360360c081101561071157600080fd5b810190808035906020019064010000000081111561072e57600080fd5b82018360208201111561074057600080fd5b8035906020019184600183028401116401000000008311171561076257600080fd5b91908080601f016020809104026020016040519081016040528093929190818152602001838380828437600081840152601f19601f820116905080830192505050505050509192919290803590602001906401000000008111156107c557600080fd5b8201836020820111156107d757600080fd5b803590602001918460018302840111640100000000831117156107f957600080fd5b91908080601f016020809104026020016040519081016040528093929190818152602001838380828437600081840152601f19601f8201169050808301925050505050505091929192908035906020019064010000000081111561085c57600080fd5b82018360208201111561086e57600080fd5b8035906020019184600183028401116401000000008311171561089057600080fd5b91908080601f016020809104026020016040519081016040528093929190818152602001838380828437600081840152601f19601f820116905080830192505050505050509192919290803590602001906401000000008111156108f357600080fd5b82018360208201111561090557600080fd5b8035906020019184600183028401116401000000008311171561092757600080fd5b91908080601f016020809104026020016040519081016040528093929190818152602001838380828437600081840152601f19601f820116905080830192505050505050509192919290803590602001909291908035906020019064010000000081111561099457600080fd5b8201836020820111156109a657600080fd5b803590602001918460018302840111640100000000831117156109c857600080fd5b91908080601f016020809104026020016040519081016040528093929190818152602001838380828437600081840152601f19601f820116905080830192505050505050509192919290505050612207565b6040518082815260200191505060405180910390f35b610a7260048036036020811015610a4657600080fd5b81019080803573ffffffffffffffffffffffffffffffffffffffff169060200190929190505050612622565b6040518082815260200191505060405180910390f35b610b69600480360360a0811015610a9e57600080fd5b810190808035906020019092919080359060200190640100000000811115610ac557600080fd5b820183602082011115610ad757600080fd5b80359060200191846001830284011164010000000083111715610af957600080fd5b91908080601f016020809104026020016040519081016040528093929190818152602001838380828437600081840152601f19601f82011690508083019250505050505050919291929080359060200190929190803590602001909291908035906020019092919050505061266b565b604051808215151515815260200191505060405180910390f35b610bb960048036036040811015610b9957600080fd5b810190808035906020019092919080359060200190929190505050612a22565b604051808215151515815260200191505060405180910390f35b610bff60048036036020811015610be957600080fd5b8101908080359060200190929190505050612e53565b60405180806020018060200180602001806020018a81526020018060200189815260200188815260200187815260200186810386528f818151815260200191508051906020019080838360005b83811015610c67578082015181840152602081019050610c4c565b50505050905090810190601f168015610c945780820380516001836020036101000a031916815260200191505b5086810385528e818151815260200191508051906020019080838360005b83811015610ccd578082015181840152602081019050610cb2565b50505050905090810190601f168015610cfa5780820380516001836020036101000a031916815260200191505b5086810384528d818151815260200191508051906020019080838360005b83811015610d33578082015181840152602081019050610d18565b50505050905090810190601f168015610d605780820380516001836020036101000a031916815260200191505b5086810383528c818151815260200191508051906020019080838360005b83811015610d99578082015181840152602081019050610d7e565b50505050905090810190601f168015610dc65780820380516001836020036101000a031916815260200191505b5086810382528a818151815260200191508051906020019080838360005b83811015610dff578082015181840152602081019050610de4565b50505050905090810190601f168015610e2c5780820380516001836020036101000a031916815260200191505b509e50505050505050505050505050505060405180910390f35b610e7260048036036020811015610e5c57600080fd5b81019080803590602001909291905050506136c0565b6040518080602001828103825283818151815260200191508051906020019080838360005b83811015610eb2578082015181840152602081019050610e97565b50505050905090810190601f168015610edf5780820380516001836020036101000a031916815260200191505b509250505060405180910390f35b610f2f60048036036020811015610f0357600080fd5b81019080803573ffffffffffffffffffffffffffffffffffffffff16906020019092919050505061377b565b6040518082815260200191505060405180910390f35b610f7b60048036036040811015610f5b57600080fd5b8101908080359060200190929190803590602001909291905050506137c7565b604051808673ffffffffffffffffffffffffffffffffffffffff1673ffffffffffffffffffffffffffffffffffffffff16815260200180602001858152602001848152602001838152602001828103825286818151815260200191508051906020019080838360005b83811015610fff578082015181840152602081019050610fe4565b50505050905090810190601f16801561102c5780820380516001836020036101000a031916815260200191505b50965050505050505060405180910390f35b6110746004803603604081101561105457600080fd5b810190808035906020019092919080359060200190929190505050613adf565b604051808215151515815260200191505060405180910390f35b6110da600480360360408110156110a457600080fd5b8101908080359060200190929190803573ffffffffffffffffffffffffffffffffffffffff169060200190929190505050613c29565b604051808215151515815260200191505060405180910390f35b6060600460008381526020019081526020016000206001016000018054600181600116156101000203166002900480601f0160208091040260200160405190810160405280929190818152602001828054600181600116156101000203166002900480156111a35780601f10611178576101008083540402835291602001916111a3565b820191906000526020600020905b81548152906001019060200180831161118657829003601f168201915b50505050509050919050565b600082823373ffffffffffffffffffffffffffffffffffffffff1660046000848152602001908152602001600020601701600101600083815260200190815260200160002060000160009054906101000a900473ffffffffffffffffffffffffffffffffffffffff1673ffffffffffffffffffffffffffffffffffffffff1610156112a2576040517f08c379a00000000000000000000000000000000000000000000000000000000081526004018080602001828103825260108152602001807f4e6f20746f6b656e20616c6c6f7765640000000000000000000000000000000081525060200191505060405180910390fd5b6112fb60046000878152602001908152602001600020601701600101600086815260200190815260200160002060000160009054906101000a900473ffffffffffffffffffffffffffffffffffffffff166001546140de565b5061130685856142c9565b5060019250505092915050565b6060600460008381526020019081526020016000206001016003018054600181600116156101000203166002900480601f0160208091040260200160405190810160405280929190818152602001828054600181600116156101000203166002900480156113c25780601f10611397576101008083540402835291602001916113c2565b820191906000526020600020905b8154815290600101906020018083116113a557829003601f168201915b50505050509050919050565b6000813373ffffffffffffffffffffffffffffffffffffffff166004600083815260200190815260200160002060000160009054906101000a900473ffffffffffffffffffffffffffffffffffffffff1673ffffffffffffffffffffffffffffffffffffffff16146114a8576040517f08c379a00000000000000000000000000000000000000000000000000000000081526004018080602001828103825260098152602001807f4e6f74206f776e6572000000000000000000000000000000000000000000000081525060200191505060405180910390fd5b6115106004600085815260200190815260200160002060140154600760003373ffffffffffffffffffffffffffffffffffffffff1673ffffffffffffffffffffffffffffffffffffffff168152602001908152602001600020546144ce90919063ffffffff16565b600760003373ffffffffffffffffffffffffffffffffffffffff1673ffffffffffffffffffffffffffffffffffffffff1681526020019081526020016000208190555060046000848152602001908152602001600020600080820160006101000a81549073ffffffffffffffffffffffffffffffffffffffff021916905560018201600080820160006115a39190614f1f565b6001820160006115b39190614f1f565b6002820160006115c39190614f1f565b6003820160006115d39190614f1f565b600482016000905560058201600090556006820160006115f39190614f1f565b6007820160006116039190614f1f565b6008820160006116139190614f1f565b6009820160006116239190614f1f565b600a820160009055600b820160009055600c820160009055600d82016000808201600090555050600f8201600061165a9190614f1f565b50506011820160009055601282016000905560138201600090556014820160009055601582016000808201600090555050601782016000808201600090556002820160008082016000905550505050601b82016000808201600090555050601d820160006101000a81549060ff0219169055505060008090506000600190505b6001600560003373ffffffffffffffffffffffffffffffffffffffff1673ffffffffffffffffffffffffffffffffffffffff16815260200190815260200160002060000154018110156117935784600560003373ffffffffffffffffffffffffffffffffffffffff1673ffffffffffffffffffffffffffffffffffffffff1681526020019081526020016000206001016000838152602001908152602001600020541415611786578091505b80806001019150506116da565b5061179d81614556565b92505050919050565b600060046000838152602001908152602001600020601401549050919050565b600060046000838152602001908152602001600020601501600001549050919050565b600081600760003373ffffffffffffffffffffffffffffffffffffffff1673ffffffffffffffffffffffffffffffffffffffff168152602001908152602001600020548111156118a1576040517f08c379a00000000000000000000000000000000000000000000000000000000081526004018080602001828103825260118152602001807f4e6f7420656e6f7567746820746f6b656e00000000000000000000000000000081525060200191505060405180910390fd5b6000600660009054906101000a900473ffffffffffffffffffffffffffffffffffffffff1690508073ffffffffffffffffffffffffffffffffffffffff1663a9059cbb33866040518363ffffffff1660e01b8152600401808373ffffffffffffffffffffffffffffffffffffffff1673ffffffffffffffffffffffffffffffffffffffff16815260200182815260200192505050602060405180830381600087803b15801561194f57600080fd5b505af1158015611963573d6000803e3d6000fd5b505050506040513d602081101561197957600080fd5b8101908080519060200190929190505050506119dd84600760003373ffffffffffffffffffffffffffffffffffffffff1673ffffffffffffffffffffffffffffffffffffffff1681526020019081526020016000205461471090919063ffffffff16565b600760003373ffffffffffffffffffffffffffffffffffffffff1673ffffffffffffffffffffffffffffffffffffffff16815260200190815260200160002081905550600192505050919050565b6000600760008373ffffffffffffffffffffffffffffffffffffffff1673ffffffffffffffffffffffffffffffffffffffff168152602001908152602001600020549050919050565b6000611a7f3361475a565b905090565b60608160046000828152602001908152602001600020601d0160009054906101000a900460ff16611b1d576040517f08c379a000000000000000000000000000000000000000000000000000000000815260040180806020018281038252601b8152602001807f7468652070617373706f727420646f6573206e6f74206578697374000000000081525060200191505060405180910390fd5b60606004600085815260200190815260200160002060170160020160000154604051908082528060200260200182016040528015611b6a5781602001602082028038833980820191505090505b50905060008090505b6004600086815260200190815260200160002060170160020160000154811015611cde5760046000868152602001908152602001600020601701600101600060018301815260200190815260200160002060000160009054906101000a900473ffffffffffffffffffffffffffffffffffffffff1673ffffffffffffffffffffffffffffffffffffffff163373ffffffffffffffffffffffffffffffffffffffff161480611c8257506004600086815260200190815260200160002060000160009054906101000a900473ffffffffffffffffffffffffffffffffffffffff1673ffffffffffffffffffffffffffffffffffffffff163373ffffffffffffffffffffffffffffffffffffffff16145b15611cd15760046000868152602001908152602001600020601701600201600101600060018301815260200190815260200160002054828281518110611cc457fe5b6020026020010181815250505b8080600101915050611b73565b508092505050919050565b6060600460008381526020019081526020016000206001016001018054600181600116156101000203166002900480601f016020809104026020016040519081016040528092919081815260200182805460018160011615610100020316600290048015611d985780601f10611d6d57610100808354040283529160200191611d98565b820191906000526020600020905b815481529060010190602001808311611d7b57829003601f168201915b50505050509050919050565b6000606060008060008660046000828152602001908152602001600020601d0160009054906101000a900460ff16611e44576040517f08c379a000000000000000000000000000000000000000000000000000000000815260040180806020018281038252601b8152602001807f7468652070617373706f727420646f6573206e6f74206578697374000000000081525060200191505060405180910390fd5b878760006004600084815260200190815260200160002060170160000154118015611ea6575060046000838152602001908152602001600020601701600101600082815260200190815260200160002060050160009054906101000a900460ff165b611f18576040517f08c379a000000000000000000000000000000000000000000000000000000000815260040180806020018281038252601b8152602001807f7468652070617373706f727420646f6573206e6f74206578697374000000000081525060200191505060405180910390fd5b611f20614f67565b600460008c815260200190815260200160002060170160010160008b81526020019081526020016000206040518060c00160405290816000820160009054906101000a900473ffffffffffffffffffffffffffffffffffffffff1673ffffffffffffffffffffffffffffffffffffffff1673ffffffffffffffffffffffffffffffffffffffff168152602001600182018054600181600116156101000203166002900480601f0160208091040260200160405190810160405280929190818152602001828054600181600116156101000203166002900480156120445780601f1061201957610100808354040283529160200191612044565b820191906000526020600020905b81548152906001019060200180831161202757829003601f168201915b505050505081526020016002820154815260200160038201548152602001600482015481526020016005820160009054906101000a900460ff16151515158152505090508060000151816020015182604001518360600151846080015183935098509850985098509850505050509295509295909350565b606080600560003373ffffffffffffffffffffffffffffffffffffffff1673ffffffffffffffffffffffffffffffffffffffff168152602001908152602001600020600001546040519080825280602002602001820160405280156121305781602001602082028038833980820191505090505b50905060008090505b600560003373ffffffffffffffffffffffffffffffffffffffff1673ffffffffffffffffffffffffffffffffffffffff168152602001908152602001600020600001548110156121ff57600560003373ffffffffffffffffffffffffffffffffffffffff1673ffffffffffffffffffffffffffffffffffffffff1681526020019081526020016000206001016000600183018152602001908152602001600020548282815181106121e657fe5b6020026020010181815250508080600101915050612139565b508091505090565b60008054600760003373ffffffffffffffffffffffffffffffffffffffff1673ffffffffffffffffffffffffffffffffffffffff1681526020019081526020016000205410156122bf576040517f08c379a00000000000000000000000000000000000000000000000000000000081526004018080602001828103825260118152602001807f4e6f7420656e6f7567687420746f6b656e00000000000000000000000000000081525060200191505060405180910390fd5b612313600054600760003373ffffffffffffffffffffffffffffffffffffffff1673ffffffffffffffffffffffffffffffffffffffff1681526020019081526020016000205461471090919063ffffffff16565b600760003373ffffffffffffffffffffffffffffffffffffffff1673ffffffffffffffffffffffffffffffffffffffff168152602001908152602001600020819055506003600081548092919060010191905055503360046000600354815260200190815260200160002060000160006101000a81548173ffffffffffffffffffffffffffffffffffffffff021916908373ffffffffffffffffffffffffffffffffffffffff1602179055508660046000600354815260200190815260200160002060010160000190805190602001906123ee929190614fb5565b5085600460006003548152602001908152602001600020600101600101908051906020019061241e929190614fb5565b5084600460006003548152602001908152602001600020600101600201908051906020019061244e929190614fb5565b5083600460006003548152602001908152602001600020600101600301908051906020019061247e929190614fb5565b50826004600060035481526020019081526020016000206001016004018190555081600460006003548152602001908152602001600020600101600f0190805190602001906124ce929190614fb5565b50600054600460006003548152602001908152602001600020601401819055506001600460006003548152602001908152602001600020601d0160006101000a81548160ff021916908315150217905550600560003373ffffffffffffffffffffffffffffffffffffffff1673ffffffffffffffffffffffffffffffffffffffff168152602001908152602001600020600001600081548092919060010191905055506000600560003373ffffffffffffffffffffffffffffffffffffffff1673ffffffffffffffffffffffffffffffffffffffff168152602001908152602001600020600001549050600354600560003373ffffffffffffffffffffffffffffffffffffffff1673ffffffffffffffffffffffffffffffffffffffff1681526020019081526020016000206001016000838152602001908152602001600020819055506003549150509695505050505050565b6000600860008373ffffffffffffffffffffffffffffffffffffffff1673ffffffffffffffffffffffffffffffffffffffff168152602001908152602001600020549050919050565b6000600154600760003373ffffffffffffffffffffffffffffffffffffffff1673ffffffffffffffffffffffffffffffffffffffff16815260200190815260200160002054811115612725576040517f08c379a00000000000000000000000000000000000000000000000000000000081526004018080602001828103825260118152602001807f4e6f7420656e6f7567746820746f6b656e00000000000000000000000000000081525060200191505060405180910390fd5b61273133600154614c76565b50600460008881526020019081526020016000206017016000016000815480929190600101919050555033600460008981526020019081526020016000206017016001016000600460008b815260200190815260200160002060170160000154815260200190815260200160002060000160006101000a81548173ffffffffffffffffffffffffffffffffffffffff021916908373ffffffffffffffffffffffffffffffffffffffff16021790555085600460008981526020019081526020016000206017016001016000600460008b8152602001908152602001600020601701600001548152602001908152602001600020600101908051906020019061283a929190614fb5565b5084600460008981526020019081526020016000206017016001016000600460008b81526020019081526020016000206017016000015481526020019081526020016000206002018190555083600460008981526020019081526020016000206017016001016000600460008b81526020019081526020016000206017016000015481526020019081526020016000206003018190555082600460008981526020019081526020016000206017016001016000600460008b8152602001908152602001600020601701600001548152602001908152602001600020600401819055506001600460008981526020019081526020016000206017016001016000600460008b815260200190815260200160002060170160000154815260200190815260200160002060050160006101000a81548160ff021916908315150217905550600460008881526020019081526020016000206017016002016000016000815480929190600101919050555060006004600089815260200190815260200160002060170160000154905080600460008a81526020019081526020016000206017016002016001016000600460008c81526020019081526020016000206017016002016000015481526020019081526020016000208190555060019250505095945050505050565b6000823373ffffffffffffffffffffffffffffffffffffffff166004600083815260200190815260200160002060000160009054906101000a900473ffffffffffffffffffffffffffffffffffffffff1673ffffffffffffffffffffffffffffffffffffffff1614612afc576040517f08c379a00000000000000000000000000000000000000000000000000000000081526004018080602001828103825260098152602001807f4e6f74206f776e6572000000000000000000000000000000000000000000000081525060200191505060405180910390fd5b836002548060046000848152602001908152602001600020601401541015612b8c576040517f08c379a000000000000000000000000000000000000000000000000000000000815260040180806020018281038252601d8152602001807f4e6f7420656e6f7567746820746f6b656e206f6e2070617373706f727400000081525060200191505060405180910390fd5b600060046000888152602001908152602001600020601701600101600087815260200190815260200160002060000160009054906101000a900473ffffffffffffffffffffffffffffffffffffffff169050612bea816001546140de565b50612c16600254600460008a81526020019081526020016000206014015461471090919063ffffffff16565b6004600089815260200190815260200160002060140181905550612c84600254600760008473ffffffffffffffffffffffffffffffffffffffff1673ffffffffffffffffffffffffffffffffffffffff168152602001908152602001600020546144ce90919063ffffffff16565b600760008373ffffffffffffffffffffffffffffffffffffffff1673ffffffffffffffffffffffffffffffffffffffff168152602001908152602001600020819055506004600088815260200190815260200160002060150160000160008154809291906001019190505550600460008881526020019081526020016000206017016001016000878152602001908152602001600020600460008981526020019081526020016000206015016001016000600460008b81526020019081526020016000206015016000015481526020019081526020016000206000820160009054906101000a900473ffffffffffffffffffffffffffffffffffffffff168160000160006101000a81548173ffffffffffffffffffffffffffffffffffffffff021916908373ffffffffffffffffffffffffffffffffffffffff16021790555060018201816001019080546001816001161561010002031660029004612deb929190615035565b506002820154816002015560038201548160030155600482015481600401556005820160009054906101000a900460ff168160050160006101000a81548160ff021916908315150217905550905050612e4487876142c9565b50600194505050505092915050565b6060806060806000606060008060008960046000828152602001908152602001600020601d0160009054906101000a900460ff16612ef9576040517f08c379a000000000000000000000000000000000000000000000000000000000815260040180806020018281038252601b8152602001807f7468652070617373706f727420646f6573206e6f74206578697374000000000081525060200191505060405180910390fd5b612f016150bc565b600460008d8152602001908152602001600020604051806101400160405290816000820160009054906101000a900473ffffffffffffffffffffffffffffffffffffffff1673ffffffffffffffffffffffffffffffffffffffff1673ffffffffffffffffffffffffffffffffffffffff16815260200160018201604051806101e0016040529081600082018054600181600116156101000203166002900480601f0160208091040260200160405190810160405280929190818152602001828054600181600116156101000203166002900480156130205780601f10612ff557610100808354040283529160200191613020565b820191906000526020600020905b81548152906001019060200180831161300357829003601f168201915b50505050508152602001600182018054600181600116156101000203166002900480601f0160208091040260200160405190810160405280929190818152602001828054600181600116156101000203166002900480156130c25780601f10613097576101008083540402835291602001916130c2565b820191906000526020600020905b8154815290600101906020018083116130a557829003601f168201915b50505050508152602001600282018054600181600116156101000203166002900480601f0160208091040260200160405190810160405280929190818152602001828054600181600116156101000203166002900480156131645780601f1061313957610100808354040283529160200191613164565b820191906000526020600020905b81548152906001019060200180831161314757829003601f168201915b50505050508152602001600382018054600181600116156101000203166002900480601f0160208091040260200160405190810160405280929190818152602001828054600181600116156101000203166002900480156132065780601f106131db57610100808354040283529160200191613206565b820191906000526020600020905b8154815290600101906020018083116131e957829003601f168201915b505050505081526020016004820154815260200160058201548152602001600682018054600181600116156101000203166002900480601f0160208091040260200160405190810160405280929190818152602001828054600181600116156101000203166002900480156132bc5780601f10613291576101008083540402835291602001916132bc565b820191906000526020600020905b81548152906001019060200180831161329f57829003601f168201915b50505050508152602001600782018054600181600116156101000203166002900480601f01602080910402602001604051908101604052809291908181526020018280546001816001161561010002031660029004801561335e5780601f106133335761010080835404028352916020019161335e565b820191906000526020600020905b81548152906001019060200180831161334157829003601f168201915b50505050508152602001600882018054600181600116156101000203166002900480601f0160208091040260200160405190810160405280929190818152602001828054600181600116156101000203166002900480156134005780601f106133d557610100808354040283529160200191613400565b820191906000526020600020905b8154815290600101906020018083116133e357829003601f168201915b50505050508152602001600982018054600181600116156101000203166002900480601f0160208091040260200160405190810160405280929190818152602001828054600181600116156101000203166002900480156134a25780601f10613477576101008083540402835291602001916134a2565b820191906000526020600020905b81548152906001019060200180831161348557829003601f168201915b50505050508152602001600a8201548152602001600b8201548152602001600c8201548152602001600d82016040518060200160405290816000820154815250508152602001600f82018054600181600116156101000203166002900480601f0160208091040260200160405190810160405280929190818152602001828054600181600116156101000203166002900480156135805780601f1061355557610100808354040283529160200191613580565b820191906000526020600020905b81548152906001019060200180831161356357829003601f168201915b505050505081525050815260200160118201548152602001601282015481526020016013820154815260200160148201548152602001601582016040518060200160405290816000820154815250508152602001601782016040518060400160405290816000820154815260200160028201604051806020016040529081600082015481525050815250508152602001601b82016040518060200160405290816000820154815250508152602001601d820160009054906101000a900460ff161515151581525050905080602001516000015181602001516020015182602001516040015183602001516060015184602001516080015185602001516101c001518660400151876060015188608001518898508797508696508595508393509a509a509a509a509a509a509a509a509a5050509193959799909294969850565b6060600460008381526020019081526020016000206001016002018054600181600116156101000203166002900480601f01602080910402602001604051908101604052809291908181526020018280546001816001161561010002031660029004801561376f5780601f106137445761010080835404028352916020019161376f565b820191906000526020600020905b81548152906001019060200180831161375257829003601f168201915b50505050509050919050565b6000600560008373ffffffffffffffffffffffffffffffffffffffff1673ffffffffffffffffffffffffffffffffffffffff168152602001908152602001600020600001549050919050565b6000606060008060008660046000828152602001908152602001600020601d0160009054906101000a900460ff16613867576040517f08c379a000000000000000000000000000000000000000000000000000000000815260040180806020018281038252601b8152602001807f7468652070617373706f727420646f6573206e6f74206578697374000000000081525060200191505060405180910390fd5b8787600060046000848152602001908152602001600020601501600001541180156138c9575060046000838152602001908152602001600020601501600101600082815260200190815260200160002060050160009054906101000a900460ff165b61393b576040517f08c379a000000000000000000000000000000000000000000000000000000000815260040180806020018281038252601b8152602001807f7468652070617373706f727420646f6573206e6f74206578697374000000000081525060200191505060405180910390fd5b613943614f67565b600460008c815260200190815260200160002060150160010160008b81526020019081526020016000206040518060c00160405290816000820160009054906101000a900473ffffffffffffffffffffffffffffffffffffffff1673ffffffffffffffffffffffffffffffffffffffff1673ffffffffffffffffffffffffffffffffffffffff168152602001600182018054600181600116156101000203166002900480601f016020809104026020016040519081016040528092919081815260200182805460018160011615610100020316600290048015613a675780601f10613a3c57610100808354040283529160200191613a67565b820191906000526020600020905b815481529060010190602001808311613a4a57829003601f168201915b505050505081526020016002820154815260200160038201548152602001600482015481526020016005820160009054906101000a900460ff16151515158152505090508060000151816020015182604001518360600151846080015183935098509850985098509850505050509295509295909350565b6000823373ffffffffffffffffffffffffffffffffffffffff166004600083815260200190815260200160002060000160009054906101000a900473ffffffffffffffffffffffffffffffffffffffff1673ffffffffffffffffffffffffffffffffffffffff1614613bb9576040517f08c379a00000000000000000000000000000000000000000000000000000000081526004018080602001828103825260098152602001807f4e6f74206f776e6572000000000000000000000000000000000000000000000081525060200191505060405180910390fd5b613c1260046000868152602001908152602001600020601701600101600085815260200190815260200160002060000160009054906101000a900473ffffffffffffffffffffffffffffffffffffffff166001546140de565b50613c1d84846142c9565b50600191505092915050565b6000823373ffffffffffffffffffffffffffffffffffffffff166004600083815260200190815260200160002060000160009054906101000a900473ffffffffffffffffffffffffffffffffffffffff1673ffffffffffffffffffffffffffffffffffffffff1614613d03576040517f08c379a00000000000000000000000000000000000000000000000000000000081526004018080602001828103825260098152602001807f4e6f74206f776e6572000000000000000000000000000000000000000000000081525060200191505060405180910390fd5b82600660009054906101000a900473ffffffffffffffffffffffffffffffffffffffff1673ffffffffffffffffffffffffffffffffffffffff1663dd62ed3e82306040518363ffffffff1660e01b8152600401808373ffffffffffffffffffffffffffffffffffffffff1673ffffffffffffffffffffffffffffffffffffffff1681526020018273ffffffffffffffffffffffffffffffffffffffff1673ffffffffffffffffffffffffffffffffffffffff1681526020019250505060206040518083038186803b158015613dd757600080fd5b505afa158015613deb573d6000803e3d6000fd5b505050506040513d6020811015613e0157600080fd5b8101908080519060200190929190505050600760008373ffffffffffffffffffffffffffffffffffffffff1673ffffffffffffffffffffffffffffffffffffffff16815260200190815260200160002054016000541115613eca576040517f08c379a00000000000000000000000000000000000000000000000000000000081526004018080602001828103825260118152602001807f4e6f7420656e6f7567687420746f6b656e00000000000000000000000000000081525060200191505060405180910390fd5b600054600760008673ffffffffffffffffffffffffffffffffffffffff1673ffffffffffffffffffffffffffffffffffffffff168152602001908152602001600020541015613f1e57613f1c8461475a565b505b613f866004600087815260200190815260200160002060140154600760003373ffffffffffffffffffffffffffffffffffffffff1673ffffffffffffffffffffffffffffffffffffffff168152602001908152602001600020546144ce90919063ffffffff16565b600760003373ffffffffffffffffffffffffffffffffffffffff1673ffffffffffffffffffffffffffffffffffffffff1681526020019081526020016000208190555061401d600054600760008773ffffffffffffffffffffffffffffffffffffffff1673ffffffffffffffffffffffffffffffffffffffff1681526020019081526020016000205461471090919063ffffffff16565b600760008673ffffffffffffffffffffffffffffffffffffffff1673ffffffffffffffffffffffffffffffffffffffff168152602001908152602001600020819055506000546004600087815260200190815260200160002060140181905550836004600087815260200190815260200160002060000160006101000a81548173ffffffffffffffffffffffffffffffffffffffff021916908373ffffffffffffffffffffffffffffffffffffffff16021790555060019250505092915050565b60008282600860008373ffffffffffffffffffffffffffffffffffffffff1673ffffffffffffffffffffffffffffffffffffffff16815260200190815260200160002054811115614197576040517f08c379a00000000000000000000000000000000000000000000000000000000081526004018080602001828103825260188152602001807f4e6f7420656e6f75677468206c6f636b656420746f6b656e000000000000000081525060200191505060405180910390fd5b6141e984600860008873ffffffffffffffffffffffffffffffffffffffff1673ffffffffffffffffffffffffffffffffffffffff1681526020019081526020016000205461471090919063ffffffff16565b600860008773ffffffffffffffffffffffffffffffffffffffff1673ffffffffffffffffffffffffffffffffffffffff1681526020019081526020016000208190555061427e84600760008873ffffffffffffffffffffffffffffffffffffffff1673ffffffffffffffffffffffffffffffffffffffff168152602001908152602001600020546144ce90919063ffffffff16565b600760008773ffffffffffffffffffffffffffffffffffffffff1673ffffffffffffffffffffffffffffffffffffffff16815260200190815260200160002081905550505092915050565b600080600090506000600190505b60016004600087815260200190815260200160002060170160020160000154018110156143445783600460008781526020019081526020016000206017016002016001016000838152602001908152602001600020541415614337578091505b80806001019150506142d7565b50600060046000868152602001908152602001600020601701600201600001549050600082111561443657808210156143d75760046000868152602001908152602001600020601701600201600101600082815260200190815260200160002054600460008781526020019081526020016000206017016002016001016000848152602001908152602001600020819055505b600460008681526020019081526020016000206017016002016001016000828152602001908152602001600020600090556004600086815260200190815260200160002060170160020160000160008154809291906001900391905055505b600460008681526020019081526020016000206017016001016000858152602001908152602001600020600080820160006101000a81549073ffffffffffffffffffffffffffffffffffffffff02191690556001820160006144989190614f1f565b6002820160009055600382016000905560048201600090556005820160006101000a81549060ff02191690555050505092915050565b60008082840190508381101561454c576040517f08c379a000000000000000000000000000000000000000000000000000000000815260040180806020018281038252601b8152602001807f536166654d6174683a206164646974696f6e206f766572666c6f77000000000081525060200191505060405180910390fd5b8091505092915050565b600080600560003373ffffffffffffffffffffffffffffffffffffffff1673ffffffffffffffffffffffffffffffffffffffff1681526020019081526020016000206000015490506000831115614706578083101561465b57600560003373ffffffffffffffffffffffffffffffffffffffff1673ffffffffffffffffffffffffffffffffffffffff168152602001908152602001600020600101600082815260200190815260200160002054600560003373ffffffffffffffffffffffffffffffffffffffff1673ffffffffffffffffffffffffffffffffffffffff1681526020019081526020016000206001016000858152602001908152602001600020819055505b600560003373ffffffffffffffffffffffffffffffffffffffff1673ffffffffffffffffffffffffffffffffffffffff168152602001908152602001600020600101600082815260200190815260200160002060009055600560003373ffffffffffffffffffffffffffffffffffffffff1673ffffffffffffffffffffffffffffffffffffffff16815260200190815260200160002060000160008154809291906001900391905055505b6001915050919050565b600061475283836040518060400160405280601e81526020017f536166654d6174683a207375627472616374696f6e206f766572666c6f770000815250614e5f565b905092915050565b6000816000600660009054906101000a900473ffffffffffffffffffffffffffffffffffffffff1673ffffffffffffffffffffffffffffffffffffffff1663dd62ed3e83306040518363ffffffff1660e01b8152600401808373ffffffffffffffffffffffffffffffffffffffff1673ffffffffffffffffffffffffffffffffffffffff1681526020018273ffffffffffffffffffffffffffffffffffffffff1673ffffffffffffffffffffffffffffffffffffffff1681526020019250505060206040518083038186803b15801561483257600080fd5b505afa158015614846573d6000803e3d6000fd5b505050506040513d602081101561485c57600080fd5b810190808051906020019092919050505010156148e1576040517f08c379a00000000000000000000000000000000000000000000000000000000081526004018080602001828103825260108152602001807f4e6f20746f6b656e20616c6c6f7765640000000000000000000000000000000081525060200191505060405180910390fd5b6000600660009054906101000a900473ffffffffffffffffffffffffffffffffffffffff16905060008173ffffffffffffffffffffffffffffffffffffffff1663dd62ed3e86306040518363ffffffff1660e01b8152600401808373ffffffffffffffffffffffffffffffffffffffff1673ffffffffffffffffffffffffffffffffffffffff1681526020018273ffffffffffffffffffffffffffffffffffffffff1673ffffffffffffffffffffffffffffffffffffffff1681526020019250505060206040518083038186803b1580156149bb57600080fd5b505afa1580156149cf573d6000803e3d6000fd5b505050506040513d60208110156149e557600080fd5b81019080805190602001909291905050509050614a4a81600760008873ffffffffffffffffffffffffffffffffffffffff1673ffffffffffffffffffffffffffffffffffffffff168152602001908152602001600020546144ce90919063ffffffff16565b600760008773ffffffffffffffffffffffffffffffffffffffff1673ffffffffffffffffffffffffffffffffffffffff168152602001908152602001600020819055508173ffffffffffffffffffffffffffffffffffffffff166323b872dd8630846040518463ffffffff1660e01b8152600401808473ffffffffffffffffffffffffffffffffffffffff1673ffffffffffffffffffffffffffffffffffffffff1681526020018373ffffffffffffffffffffffffffffffffffffffff1673ffffffffffffffffffffffffffffffffffffffff1681526020018281526020019350505050602060405180830381600087803b158015614b4857600080fd5b505af1158015614b5c573d6000803e3d6000fd5b505050506040513d6020811015614b7257600080fd5b8101908080519060200190929190505050507ffa383685af7aee0247276babe7acc9e1ea0531fee8014833fb8a3521ee27e2ff853083600760008a73ffffffffffffffffffffffffffffffffffffffff1673ffffffffffffffffffffffffffffffffffffffff16815260200190815260200160002054604051808573ffffffffffffffffffffffffffffffffffffffff1673ffffffffffffffffffffffffffffffffffffffff1681526020018473ffffffffffffffffffffffffffffffffffffffff1673ffffffffffffffffffffffffffffffffffffffff16815260200183815260200182815260200194505050505060405180910390a160019350505050919050565b600081600760003373ffffffffffffffffffffffffffffffffffffffff1673ffffffffffffffffffffffffffffffffffffffff16815260200190815260200160002054811115614d2e576040517f08c379a00000000000000000000000000000000000000000000000000000000081526004018080602001828103825260118152602001807f4e6f7420656e6f7567746820746f6b656e00000000000000000000000000000081525060200191505060405180910390fd5b614d8083600860008773ffffffffffffffffffffffffffffffffffffffff1673ffffffffffffffffffffffffffffffffffffffff168152602001908152602001600020546144ce90919063ffffffff16565b600860008673ffffffffffffffffffffffffffffffffffffffff1673ffffffffffffffffffffffffffffffffffffffff16815260200190815260200160002081905550614e1583600760008773ffffffffffffffffffffffffffffffffffffffff1673ffffffffffffffffffffffffffffffffffffffff1681526020019081526020016000205461471090919063ffffffff16565b600760008673ffffffffffffffffffffffffffffffffffffffff1673ffffffffffffffffffffffffffffffffffffffff168152602001908152602001600020819055505092915050565b6000838311158290614f0c576040517f08c379a00000000000000000000000000000000000000000000000000000000081526004018080602001828103825283818151815260200191508051906020019080838360005b83811015614ed1578082015181840152602081019050614eb6565b50505050905090810190601f168015614efe5780820380516001836020036101000a031916815260200191505b509250505060405180910390fd5b5060008385039050809150509392505050565b50805460018160011615610100020316600290046000825580601f10614f455750614f64565b601f016020900490600052602060002090810190614f63919061513f565b5b50565b6040518060c00160405280600073ffffffffffffffffffffffffffffffffffffffff168152602001606081526020016000815260200160008152602001600081526020016000151581525090565b828054600181600116156101000203166002900490600052602060002090601f016020900481019282601f10614ff657805160ff1916838001178555615024565b82800160010185558215615024579182015b82811115615023578251825591602001919060010190615008565b5b509050615031919061513f565b5090565b828054600181600116156101000203166002900490600052602060002090601f016020900481019282601f1061506e57805485556150ab565b828001600101855582156150ab57600052602060002091601f016020900482015b828111156150aa57825482559160010191906001019061508f565b5b5090506150b8919061513f565b5090565b604051806101400160405280600073ffffffffffffffffffffffffffffffffffffffff1681526020016150ed615164565b8152602001600081526020016000815260200160008152602001600081526020016151166151e0565b81526020016151236151f3565b8152602001615130615213565b81526020016000151581525090565b61516191905b8082111561515d576000816000905550600101615145565b5090565b90565b604051806101e00160405280606081526020016060815260200160608152602001606081526020016000815260200160008152602001606081526020016060815260200160608152602001606081526020016000815260200160008152602001600081526020016151d3615226565b8152602001606081525090565b6040518060200160405280600081525090565b60405180604001604052806000815260200161520d615239565b81525090565b6040518060200160405280600081525090565b6040518060200160405280600081525090565b604051806020016040528060008152509056fea26469706673582212202e5044cfc00e79a51b5c02b75b73e1b863cae7b7da3c89293721069fcd2fcf7064736f6c63430006000033",
  "source": "/*\r\n    SPDX-License-Identifier: UNLICENSED\"\r\n*/\r\npragma solidity >= 0.5.0 < 0.7.0;\r\n//pragma experimental ABIEncoderV2;\r\n\r\nimport {KarToken} from \"./KarToken.sol\";\r\nimport {SafeMath} from \"./libraries/SafeMath.sol\";\r\n\r\ncontract KarPassport {\r\n    using SafeMath for uint;\r\n\r\n    event TransfertToken(address sender, address contractAddress, uint amount, uint senderBalance);\r\n\r\n    /*\r\n        Define an public owner variable. Set it to the creator of the contract when it is initialized.\r\n    */\r\n    uint   PASSPORT_PRICE = 100;\r\n    uint   TOKEN_EVENT_LOCK = 10;\r\n    uint   TOKEN_EVENT_REWARD = 1;\r\n\r\n    uint256 _totalPassport = 0;\r\n    mapping (uint => Passport) _passport;\r\n    mapping (address => Mapping) _passportIdentifiants;\r\n    address _tokenContractAddr;\r\n    mapping (address => uint) _balance;\r\n    mapping (address => uint) _lockedBalance;\r\n\r\n    //Typologies\r\n    struct Mapping {\r\n        uint size;\r\n        mapping(uint => uint) data;\r\n    }\r\n\r\n    struct MappingEvent {\r\n        uint size;\r\n        mapping(uint => Event) data;\r\n    }\r\n\r\n    struct MappingWaitingEvent {\r\n        uint256 size;\r\n        mapping(uint => Event) data;\r\n        MappingIndex index;\r\n    }\r\n\r\n    struct MappingIndex {\r\n        uint size;\r\n        mapping(uint => uint256) data;\r\n    }\r\n\r\n    struct MappingOwner {\r\n        uint size;\r\n        mapping(uint => Owner) data;\r\n    }\r\n\r\n \r\n\r\n    struct Event {\r\n        address sender;\r\n        string description;\r\n        uint256 date;\r\n        uint256 expirationDate;\r\n        uint km;\r\n        bool exists;\r\n    }\r\n\r\n    struct Owner {\r\n        address _owner;\r\n        uint256 acquisitionDate;\r\n    }\r\n\r\n    struct CarIdentity{\r\n        // car info\r\n        string  name;\r\n        string  id;\r\n        string  brand;\r\n        string  modele;\r\n        uint256  year;\r\n        uint256  releaseDate;\r\n        string  oilType;\r\n        string  gearbox;\r\n        string  outColor;\r\n        string  inColor;\r\n        uint  numberOfDoor;\r\n        uint numberOfPlace;\r\n        uint  power;\r\n        Mapping  options;\r\n\r\n        string  numberPlate;\r\n    }\r\n\r\n    struct Passport {\r\n        address owner;\r\n        CarIdentity identity;\r\n\r\n        //car variable\r\n        uint256  km;\r\n        uint256  technicalControlExpirationDate;\r\n        uint256  insuranceExpirationDate;\r\n\r\n        //contract variable\r\n        uint256 balance;\r\n\r\n        //car event\r\n        MappingEvent events;\r\n        MappingWaitingEvent waitingEvents;\r\n        MappingOwner historyOwners;\r\n\r\n        bool exists;\r\n    }\r\n\r\n\r\n    /*\r\n        Create a modifier that throws an error if the sender has no allowance.\r\n    */\r\n    modifier requireTokenAllowance(address sender) {\r\n        require(\r\n            KarToken(_tokenContractAddr).allowance(sender, address(this)) >= 0,\r\n            \"No token allowed\"\r\n        );\r\n        _;\r\n    }\r\n\r\n    /*\r\n        Create a modifier that throws an error if not the event creator.\r\n    */\r\n    modifier requireEventCreator(uint256 idPassport, uint256 idEvent) {\r\n        require(\r\n            _passport[idPassport].waitingEvents.data[idEvent].sender >= msg.sender,\r\n            \"No token allowed\"\r\n        );\r\n        _;\r\n    }\r\n\r\n    /*\r\n        Create a modifier that throws an error if the msg.sender has not the require token number.\r\n    */\r\n    modifier requireToken(uint numToken) {\r\n        require(\r\n            numToken<=_balance[msg.sender],\r\n            \"Not enougth token\"\r\n        );\r\n        _;\r\n    }\r\n\r\n    /*\r\n        Create a modifier that throws an error if the msg.sender has not the require token number.\r\n    */\r\n    modifier requireLockedToken(address sender, uint numToken) {\r\n        require(\r\n            numToken<=_lockedBalance[sender],\r\n            \"Not enougth locked token\"\r\n        );\r\n        _;\r\n    }\r\n\r\n    /*\r\n        Create a modifier that throws an error if the msg.sender has not the require token number.\r\n    */\r\n    modifier requirePassportToken(uint256 idPassport, uint numToken) {\r\n        require(\r\n            _passport[idPassport].balance>=numToken,\r\n            \"Not enougth token on passport\"\r\n        );\r\n        _;\r\n    }\r\n\r\n    /*\r\n        Create a modifier that throws an error if the msg.sender is not the owner.\r\n    */\r\n    modifier requireOwner(uint256 passportId) {\r\n        require(\r\n            _passport[passportId].owner == msg.sender,\r\n            \"Not owner\"\r\n        );\r\n        _;\r\n    }\r\n\r\n    /*\r\n        Create a modifier that throws an error if the acquirer has not enougth token.\r\n    */\r\n    modifier requirePassportPrice(address acquirer){\r\n        require(\r\n            PASSPORT_PRICE<=_balance[acquirer]+KarToken(_tokenContractAddr).allowance(acquirer, address(this)),\r\n            \"Not enought token\"\r\n        );\r\n        _;\r\n    }\r\n\r\n    /*\r\n        Create a modifier that throws an error if the acquirer has not enougth token.\r\n    */\r\n    modifier requireAvailableToken(address sender, uint numToken){\r\n        require(\r\n            numToken<=_balance[sender]+KarToken(_tokenContractAddr).allowance(sender, address(this)),\r\n            \"Not enought token\"\r\n        );\r\n        _;\r\n    }\r\n\r\n    /*\r\n        Create a modifier that throws an error if the passport does not exist.\r\n    */\r\n    modifier requireExists(uint256 passportId) {\r\n        require(\r\n            _passport[passportId].exists,\r\n            \"the passport does not exist\"\r\n        );\r\n        _;\r\n    }\r\n\r\n    /*\r\n        Create a modifier that throws an error if event does not exist.\r\n    */\r\n    modifier requireEventExists(uint256 passportId, uint256 idEvent) {\r\n        require(\r\n            _passport[passportId].events.size > 0 && _passport[passportId].events.data[idEvent].exists,\r\n            \"the passport does not exist\"\r\n        );\r\n        _;\r\n    }\r\n\r\n    /*\r\n        Create a modifier that throws an error if waiting event does not exist.\r\n    */\r\n    modifier requireWaitingEventExists(uint256 passportId, uint idEvent) {\r\n        require(\r\n            _passport[passportId].waitingEvents.size > 0 && _passport[passportId].waitingEvents.data[idEvent].exists,\r\n            \"the passport does not exist\"\r\n        );\r\n        _;\r\n    }\r\n\r\n\r\n    /*\r\n        constructor\r\n    */\r\n    constructor(address tokenContractAddr)\r\n    public payable\r\n    {\r\n        _tokenContractAddr = tokenContractAddr;\r\n    }\r\n\r\n    /*\r\n        createPassport\r\n    */\r\n    function createPassport(string memory name,\r\n                            string memory id,\r\n                            string memory brand,\r\n                            string memory modele,\r\n                            uint256 year,\r\n                            string memory numberPlate)\r\n    public returns (uint256)\r\n    {\r\n        require(_balance[msg.sender] >= PASSPORT_PRICE, \"Not enought token\");\r\n\r\n        _balance[msg.sender] = _balance[msg.sender].sub(PASSPORT_PRICE);\r\n\r\n        _totalPassport++;\r\n        _passport[_totalPassport].owner = msg.sender;\r\n        _passport[_totalPassport].identity.name = name;\r\n        _passport[_totalPassport].identity.id = id;\r\n        _passport[_totalPassport].identity.brand = brand;\r\n        _passport[_totalPassport].identity.modele = modele;\r\n        _passport[_totalPassport].identity.year = year;\r\n        _passport[_totalPassport].identity.numberPlate = numberPlate;\r\n        _passport[_totalPassport].balance = PASSPORT_PRICE;\r\n        _passport[_totalPassport].exists = true;\r\n\r\n        //Update search with address index\r\n        _passportIdentifiants[msg.sender].size++;\r\n        uint indexPassportId = _passportIdentifiants[msg.sender].size;\r\n        _passportIdentifiants[msg.sender].data[indexPassportId] = _totalPassport;\r\n\r\n        return _totalPassport;\r\n    }\r\n\r\n    /**\r\n     * deletePassport\r\n     */\r\n    function totalPassport(address owner)\r\n    public view returns(uint){\r\n        return _passportIdentifiants[owner].size;\r\n    }\r\n\r\n    /**\r\n     * deletePassport\r\n     */\r\n    function deletePassport(uint256 passportId)\r\n    public requireOwner(passportId) returns (bool){\r\n\r\n        _balance[msg.sender] = _balance[msg.sender].add(_passport[passportId].balance);\r\n        delete(_passport[passportId]);\r\n\r\n        //delete from owner table\r\n        uint indexToDelete = 0;\r\n        for(uint i = 1; i < _passportIdentifiants[msg.sender].size+1; i++) {\r\n            if(_passportIdentifiants[msg.sender].data[i]==passportId){\r\n                indexToDelete = i;\r\n            }\r\n        }\r\n\r\n        return _deleteMappingItem(indexToDelete);\r\n    }\r\n\r\n    /**\r\n        _deleteMappingItem\r\n     */\r\n    function _deleteMappingItem(uint indexToDelete)\r\n    private returns (bool){\r\n        uint indexMax = _passportIdentifiants[msg.sender].size;\r\n        if(indexToDelete>0){\r\n            if(indexToDelete < indexMax){\r\n                _passportIdentifiants[msg.sender].data[indexToDelete] = _passportIdentifiants[msg.sender].data[indexMax];\r\n            }\r\n            delete(_passportIdentifiants[msg.sender].data[indexMax]);\r\n            _passportIdentifiants[msg.sender].size--;\r\n        }\r\n\r\n        return true;\r\n    }\r\n\r\n    /**\r\n     * transferAllowedToken\r\n     */\r\n    function transferAllowedToken()\r\n    public returns (bool) {\r\n        return _transferAllowedToken(msg.sender);\r\n    }\r\n\r\n    /**\r\n     * _transferAllowedToken\r\n     */\r\n    function _transferAllowedToken(address sender)\r\n    private requireTokenAllowance(sender) returns (bool){\r\n        KarToken token = KarToken(_tokenContractAddr);\r\n        uint numToken = token.allowance(sender, address(this));\r\n         _balance[sender] = _balance[sender].add(numToken);\r\n        token.transferFrom(sender, address(this), numToken);\r\n        emit TransfertToken(sender, address(this), numToken, _balance[sender]);\r\n        return true;\r\n    }\r\n\r\n    /**\r\n     * withdrawToken\r\n     */\r\n    function withdrawToken(uint numToken)\r\n    public requireToken(numToken) returns (bool){\r\n        KarToken token = KarToken(_tokenContractAddr);\r\n        token.transfer(msg.sender, numToken);\r\n        _balance[msg.sender] = _balance[msg.sender].sub(numToken);\r\n        return true;\r\n    }\r\n\r\n    /**\r\n     * transferPassport\r\n     */\r\n    function transferPassport(uint256 passportId, address acquirer)\r\n    public requireOwner(passportId) requirePassportPrice(acquirer) returns (bool){\r\n\r\n        if(_balance[acquirer] < PASSPORT_PRICE){\r\n            _transferAllowedToken(acquirer);\r\n        }\r\n        _balance[msg.sender] = _balance[msg.sender].add(_passport[passportId].balance);\r\n\r\n        _balance[acquirer] = _balance[acquirer].sub(PASSPORT_PRICE);\r\n        _passport[passportId].balance = PASSPORT_PRICE;\r\n        _passport[passportId].owner = acquirer;\r\n\r\n        return true;\r\n    }\r\n\r\n    /**\r\n     * passportIdentifiants\r\n     */\r\n    function passportIdentifiants()\r\n    public view returns (uint256[] memory){\r\n        uint256[] memory memoryArray = new uint256[](_passportIdentifiants[msg.sender].size);\r\n\r\n        for(uint i = 0; i < _passportIdentifiants[msg.sender].size; i++) {\r\n            memoryArray[i] = _passportIdentifiants[msg.sender].data[i+1];\r\n        }\r\n        return memoryArray;\r\n    }\r\n\r\n    /**\r\n     * @dev Returns the number of event\r\n     */\r\n    function eventsNumber(uint256 idPassport) public view returns (uint) {\r\n        return _passport[idPassport].events.size;\r\n    }\r\n\r\n    /**\r\n        passportEvent\r\n     */\r\n    function passportEvent(uint256 idPassport, uint eventIndex)\r\n    public view requireExists(idPassport) requireEventExists(idPassport, eventIndex)\r\n    returns (address, string memory, uint256, uint256, uint) {\r\n        Event memory e = _passport[idPassport].events.data[eventIndex];\r\n         return (e.sender,\r\n                e.description,\r\n                e.date,\r\n                e.expirationDate,\r\n                e.km);\r\n    }\r\n\r\n    /**\r\n    * passportWaitingEvents\r\n    */\r\n    function passportWaitingEvents(uint256 idPassport, uint eventIndex)\r\n    public view requireExists(idPassport) requireWaitingEventExists(idPassport, eventIndex)\r\n    returns (address, string memory, uint256, uint256, uint) {\r\n\r\n        Event memory e = _passport[idPassport].waitingEvents.data[eventIndex];\r\n         return (e.sender,\r\n                e.description,\r\n                e.date,\r\n                e.expirationDate,\r\n                e.km);\r\n    }\r\n\r\n    /**\r\n    * passportWaitingEventsIDs\r\n    */\r\n    function passportWaitingEventsIDs(uint256 idPassport)\r\n    public view requireExists(idPassport)\r\n    returns (uint256[] memory){\r\n        uint256[] memory memoryArray = new uint256[](_passport[idPassport].waitingEvents.index.size);\r\n\r\n        for(uint i = 0; i < _passport[idPassport].waitingEvents.index.size; i++) {\r\n            if(msg.sender==_passport[idPassport].waitingEvents.data[i+1].sender ||\r\n                msg.sender==_passport[idPassport].owner){\r\n                memoryArray[i] = _passport[idPassport].waitingEvents.index.data[i+1];\r\n            }\r\n        }\r\n        return memoryArray;\r\n    }\r\n\r\n    /**\r\n    * createEvent\r\n    */\r\n    function createEvent(uint256 idPassport,\r\n                        string memory description,\r\n                        uint256 date,\r\n                        uint256 expirationDate,\r\n                        uint km)\r\n    public requireToken(TOKEN_EVENT_LOCK) returns (bool){\r\n        _lockToken(msg.sender, TOKEN_EVENT_LOCK);\r\n\r\n        _passport[idPassport].waitingEvents.size++;\r\n        _passport[idPassport].waitingEvents.data[_passport[idPassport].waitingEvents.size].sender = msg.sender;\r\n        _passport[idPassport].waitingEvents.data[_passport[idPassport].waitingEvents.size].description = description;\r\n        _passport[idPassport].waitingEvents.data[_passport[idPassport].waitingEvents.size].date = date;\r\n        _passport[idPassport].waitingEvents.data[_passport[idPassport].waitingEvents.size].expirationDate = expirationDate;\r\n        _passport[idPassport].waitingEvents.data[_passport[idPassport].waitingEvents.size].km = km;\r\n        _passport[idPassport].waitingEvents.data[_passport[idPassport].waitingEvents.size].exists = true;\r\n\r\n        _passport[idPassport].waitingEvents.index.size++;\r\n        uint256 idEvent = _passport[idPassport].waitingEvents.size;\r\n        _passport[idPassport].waitingEvents.index.data[_passport[idPassport].waitingEvents.index.size] = idEvent;\r\n        return true;\r\n    }\r\n\r\n    /**\r\n    * approveEvent\r\n    */\r\n    function approveEvent(uint256 idPassport, uint idEvent)\r\n    public requireOwner(idPassport) requirePassportToken(idPassport, TOKEN_EVENT_REWARD) returns (bool)\r\n    {\r\n         address eventSender = _passport[idPassport].waitingEvents.data[idEvent].sender;\r\n        _unlockToken(eventSender, TOKEN_EVENT_LOCK);\r\n        _passport[idPassport].balance = _passport[idPassport].balance.sub(TOKEN_EVENT_REWARD);\r\n        _balance[eventSender] = _balance[eventSender].add(TOKEN_EVENT_REWARD);\r\n\r\n        _passport[idPassport].events.size++;\r\n        _passport[idPassport].events.data[_passport[idPassport].events.size] = _passport[idPassport].waitingEvents.data[idEvent];\r\n\r\n        _deleteWaitingEvent(idPassport, idEvent);\r\n        return true;\r\n    }\r\n\r\n    /**\r\n    * approveEvent\r\n    */\r\n    function dismissEvent(uint256 idPassport, uint idEvent)\r\n    public requireOwner(idPassport) returns (bool)\r\n    {\r\n        _unlockToken(_passport[idPassport].waitingEvents.data[idEvent].sender, TOKEN_EVENT_LOCK);\r\n        _deleteWaitingEvent(idPassport, idEvent);\r\n        return true;\r\n    }\r\n\r\n    /**\r\n    * approveEvent\r\n    */\r\n    function cancelEvent(uint256 idPassport, uint idEvent)\r\n    public requireEventCreator(idPassport, idEvent) returns (bool)\r\n    {\r\n        _unlockToken(_passport[idPassport].waitingEvents.data[idEvent].sender, TOKEN_EVENT_LOCK);\r\n        _deleteWaitingEvent(idPassport, idEvent);\r\n        return true;\r\n    }\r\n\r\n    /**\r\n    * _deleteWaitingEvent\r\n    */\r\n    function _deleteWaitingEvent(uint256 idPassport, uint idToDelete)\r\n    private returns (bool)\r\n    {\r\n        //retreive idToDelete from index table\r\n        uint indexToDelete = 0;\r\n        for(uint i = 1; i < _passport[idPassport].waitingEvents.index.size+1; i++) {\r\n            if(_passport[idPassport].waitingEvents.index.data[i]==idToDelete){\r\n                indexToDelete = i;\r\n            }\r\n        }\r\n\r\n        //delete from index table\r\n        uint indexMax = _passport[idPassport].waitingEvents.index.size;\r\n        if(indexToDelete>0){\r\n            if(indexToDelete < indexMax){\r\n                _passport[idPassport].waitingEvents.index.data[indexToDelete] = _passport[idPassport].waitingEvents.index.data[indexMax];\r\n            }\r\n            delete(_passport[idPassport].waitingEvents.index.data[indexMax]);\r\n            _passport[idPassport].waitingEvents.index.size--;\r\n        }\r\n\r\n        //delete the waiting event\r\n        delete(_passport[idPassport].waitingEvents.data[idToDelete]);\r\n    }\r\n\r\n    /**\r\n    * _lockToken\r\n    */\r\n    function _lockToken(address sender, uint numToken)\r\n    private requireToken(numToken) returns (bool)\r\n    {\r\n        _lockedBalance[sender] = _lockedBalance[sender].add(numToken);\r\n        _balance[sender] = _balance[sender].sub(numToken);\r\n    }\r\n\r\n    /**\r\n    * _unlockToken\r\n    */\r\n    function _unlockToken(address sender, uint numToken)\r\n    private requireLockedToken(sender, numToken) returns (bool)\r\n    {\r\n        _lockedBalance[sender] = _lockedBalance[sender].sub(numToken);\r\n        _balance[sender] = _balance[sender].add(numToken);\r\n    }\r\n\r\n\r\n    /**\r\n     * @dev Returns the name\r\n     */\r\n    function balance(uint256 idPassport) public view returns (uint256) {\r\n        return _passport[idPassport].balance;\r\n    }\r\n\r\n    /**\r\n     * balance\r\n     */\r\n    function balanceOf(address sender) public view returns (uint) {\r\n        return _balance[sender];\r\n    }\r\n\r\n    /**\r\n     * balance\r\n     */\r\n    function lockedBalance(address sender) public view returns (uint) {\r\n        return _lockedBalance[sender];\r\n    }\r\n\r\n    /**\r\n     * passport\r\n     **/\r\n    function passport(uint256 identifiant)\r\n    public view requireExists(identifiant) returns (string memory, string memory, string memory, string memory, uint256, string memory, uint256, uint256, uint256)\r\n    {\r\n        Passport memory p = _passport[identifiant];\r\n        return (p.identity.name,\r\n                p.identity.id,\r\n                p.identity.brand,\r\n                p.identity.modele,\r\n                p.identity.year,\r\n                p.identity.numberPlate,\r\n                p.km,\r\n                p.technicalControlExpirationDate,\r\n                p.insuranceExpirationDate);\r\n    }\r\n\r\n\r\n    /**\r\n     * @dev Returns the name\r\n     */\r\n    function name(uint256 idPassport) public view returns (string memory) {\r\n        return _passport[idPassport].identity.name;\r\n    }\r\n\r\n\r\n    /**\r\n     * @dev Returns the id\r\n     */\r\n    function id(uint256 idPassport) public view returns (string memory) {\r\n        return _passport[idPassport].identity.id;\r\n    }\r\n\r\n    /**\r\n     * @dev Returns the brand\r\n     */\r\n    function brand(uint256 idPassport) public view returns (string memory) {\r\n        return _passport[idPassport].identity.brand;\r\n    }\r\n\r\n    /**\r\n     * @dev Returns the modele\r\n     */\r\n    function modele(uint256 idPassport) public view returns (string memory) {\r\n        return _passport[idPassport].identity.modele;\r\n    }\r\n\r\n\r\n}\r\n",
  "sourcePath": "E:/Dropbox/CADAERO/Projets/KarPassport/KarPass/contracts/KarPassport.sol",
  "compiler": {
    "name": "solc",
    "version": "0.6.0+commit.26b70077.Emscripten.clang"
  },
  "schemaVersion": "3.2.5",
  "updatedAt": "2020-11-12T11:30:24.065Z",
  "networkType": "ethereum",
  "devdoc": {
    "methods": {
      "balance(uint256)": {
        "details": "Returns the name"
      },
      "brand(uint256)": {
        "details": "Returns the brand"
      },
      "eventsNumber(uint256)": {
        "details": "Returns the number of event"
      },
      "id(uint256)": {
        "details": "Returns the id"
      },
      "modele(uint256)": {
        "details": "Returns the modele"
      },
      "name(uint256)": {
        "details": "Returns the name"
      }
    }
  },
  "userdoc": {
    "methods": {
      "approveEvent(uint256,uint256)": {
        "notice": "approveEvent"
      },
      "balanceOf(address)": {
        "notice": "balance"
      },
      "cancelEvent(uint256,uint256)": {
        "notice": "approveEvent"
      },
      "createEvent(uint256,string,uint256,uint256,uint256)": {
        "notice": "createEvent"
      },
      "deletePassport(uint256)": {
        "notice": "deletePassport"
      },
      "dismissEvent(uint256,uint256)": {
        "notice": "approveEvent"
      },
      "lockedBalance(address)": {
        "notice": "balance"
      },
      "passport(uint256)": {
        "notice": "passport*"
      },
      "passportEvent(uint256,uint256)": {
        "notice": "passportEvent"
      },
      "passportIdentifiants()": {
        "notice": "passportIdentifiants"
      },
      "passportWaitingEvents(uint256,uint256)": {
        "notice": "passportWaitingEvents"
      },
      "passportWaitingEventsIDs(uint256)": {
        "notice": "passportWaitingEventsIDs"
      },
      "totalPassport(address)": {
        "notice": "deletePassport"
      },
      "transferAllowedToken()": {
        "notice": "transferAllowedToken"
      },
      "transferPassport(uint256,address)": {
        "notice": "transferPassport"
      },
      "withdrawToken(uint256)": {
        "notice": "withdrawToken"
      }
    }
  }
}