{
  "contractName": "KarPassport",
  "abi": [
    {
      "inputs": [
        {
          "internalType": "address",
          "name": "tokenContractAddr",
          "type": "address"
        }
      ],
      "stateMutability": "nonpayable",
      "type": "constructor"
    },
    {
      "anonymous": false,
      "inputs": [
        {
          "indexed": false,
          "internalType": "address",
          "name": "sender",
          "type": "address"
        },
        {
          "indexed": false,
          "internalType": "address",
          "name": "passport",
          "type": "address"
        },
        {
          "indexed": false,
          "internalType": "uint256",
          "name": "amount",
          "type": "uint256"
        },
        {
          "indexed": false,
          "internalType": "uint256",
          "name": "senderBalance",
          "type": "uint256"
        }
      ],
      "name": "TransfertToken",
      "type": "event"
    },
    {
      "inputs": [],
      "name": "_owner",
      "outputs": [
        {
          "internalType": "address payable",
          "name": "",
          "type": "address"
        }
      ],
      "stateMutability": "view",
      "type": "function"
    },
    {
      "inputs": [
        {
          "internalType": "uint256",
          "name": "",
          "type": "uint256"
        }
      ],
      "name": "adopters",
      "outputs": [
        {
          "internalType": "address",
          "name": "",
          "type": "address"
        }
      ],
      "stateMutability": "view",
      "type": "function"
    },
    {
      "inputs": [],
      "name": "activate",
      "outputs": [
        {
          "internalType": "bool",
          "name": "",
          "type": "bool"
        }
      ],
      "stateMutability": "nonpayable",
      "type": "function"
    },
    {
      "inputs": [],
      "name": "balance",
      "outputs": [
        {
          "internalType": "uint256",
          "name": "",
          "type": "uint256"
        }
      ],
      "stateMutability": "view",
      "type": "function"
    },
    {
      "inputs": [],
      "name": "name",
      "outputs": [
        {
          "internalType": "string",
          "name": "",
          "type": "string"
        }
      ],
      "stateMutability": "view",
      "type": "function"
    },
    {
      "inputs": [],
      "name": "id",
      "outputs": [
        {
          "internalType": "string",
          "name": "",
          "type": "string"
        }
      ],
      "stateMutability": "view",
      "type": "function"
    },
    {
      "inputs": [],
      "name": "brand",
      "outputs": [
        {
          "internalType": "string",
          "name": "",
          "type": "string"
        }
      ],
      "stateMutability": "view",
      "type": "function"
    },
    {
      "inputs": [],
      "name": "modele",
      "outputs": [
        {
          "internalType": "string",
          "name": "",
          "type": "string"
        }
      ],
      "stateMutability": "view",
      "type": "function"
    },
    {
      "inputs": [
        {
          "internalType": "uint256",
          "name": "petId",
          "type": "uint256"
        }
      ],
      "name": "adopt",
      "outputs": [
        {
          "internalType": "uint256",
          "name": "",
          "type": "uint256"
        }
      ],
      "stateMutability": "nonpayable",
      "type": "function"
    },
    {
      "inputs": [],
      "name": "getAdopters",
      "outputs": [
        {
          "internalType": "address[16]",
          "name": "",
          "type": "address[16]"
        }
      ],
      "stateMutability": "view",
      "type": "function"
    }
  ],
  "bytecode": "0x6080604052600a6000553480156200001657600080fd5b506040516200110338038062001103833981810160405260208110156200003c57600080fd5b810190808051906020019092919050505080600360006101000a81548173ffffffffffffffffffffffffffffffffffffffff021916908373ffffffffffffffffffffffffffffffffffffffff16021790555033600160006101000a81548173ffffffffffffffffffffffffffffffffffffffff021916908373ffffffffffffffffffffffffffffffffffffffff1602179055506040518060400160405280600481526020017f6e616d6500000000000000000000000000000000000000000000000000000000815250600490805190602001906200011c9291906200020e565b506040518060400160405280600281526020017f6964000000000000000000000000000000000000000000000000000000000000815250600590805190602001906200016a9291906200020e565b506040518060400160405280600581526020017f6272616e6400000000000000000000000000000000000000000000000000000081525060069080519060200190620001b89291906200020e565b506040518060400160405280600681526020017f6d6f64656c65000000000000000000000000000000000000000000000000000081525060079080519060200190620002069291906200020e565b5050620002bd565b828054600181600116156101000203166002900490600052602060002090601f016020900481019282601f106200025157805160ff191683800117855562000282565b8280016001018555821562000282579182015b828111156200028157825182559160200191906001019062000264565b5b50905062000291919062000295565b5090565b620002ba91905b80821115620002b65760008160009055506001016200029c565b5090565b90565b610e3680620002cd6000396000f3fe608060405234801561001057600080fd5b506004361061009e5760003560e01c80638588b2c5116100665780638588b2c51461027f578063af640d0f146102c1578063b2bdfa7b14610344578063b3f3e32a1461038e578063b69ef8a8146104115761009e565b806306fdde03146100a35780630f15f4c0146101265780632d9fff01146101485780633de4eb17146101cb57806343ae80d314610211575b600080fd5b6100ab61042f565b6040518080602001828103825283818151815260200191508051906020019080838360005b838110156100eb5780820151818401526020810190506100d0565b50505050905090810190601f1680156101185780820380516001836020036101000a031916815260200191505b509250505060405180910390f35b61012e6104d1565b604051808215151515815260200191505060405180910390f35b610150610aa2565b6040518080602001828103825283818151815260200191508051906020019080838360005b83811015610190578082015181840152602081019050610175565b50505050905090810190601f1680156101bd5780820380516001836020036101000a031916815260200191505b509250505060405180910390f35b6101d3610b44565b6040518082601060200280838360005b838110156101fe5780820151818401526020810190506101e3565b5050505090500191505060405180910390f35b61023d6004803603602081101561022757600080fd5b8101908080359060200190929190505050610bc5565b604051808273ffffffffffffffffffffffffffffffffffffffff1673ffffffffffffffffffffffffffffffffffffffff16815260200191505060405180910390f35b6102ab6004803603602081101561029557600080fd5b8101908080359060200190929190505050610bf8565b6040518082815260200191505060405180910390f35b6102c9610c69565b6040518080602001828103825283818151815260200191508051906020019080838360005b838110156103095780820151818401526020810190506102ee565b50505050905090810190601f1680156103365780820380516001836020036101000a031916815260200191505b509250505060405180910390f35b61034c610d0b565b604051808273ffffffffffffffffffffffffffffffffffffffff1673ffffffffffffffffffffffffffffffffffffffff16815260200191505060405180910390f35b610396610d31565b6040518080602001828103825283818151815260200191508051906020019080838360005b838110156103d65780820151818401526020810190506103bb565b50505050905090810190601f1680156104035780820380516001836020036101000a031916815260200191505b509250505060405180910390f35b610419610dd3565b6040518082815260200191505060405180910390f35b606060048054600181600116156101000203166002900480601f0160208091040260200160405190810160405280929190818152602001828054600181600116156101000203166002900480156104c75780601f1061049c576101008083540402835291602001916104c7565b820191906000526020600020905b8154815290600101906020018083116104aa57829003601f168201915b5050505050905090565b600080600360009054906101000a900473ffffffffffffffffffffffffffffffffffffffff1690506000548173ffffffffffffffffffffffffffffffffffffffff166370a08231336040518263ffffffff1660e01b8152600401808273ffffffffffffffffffffffffffffffffffffffff1673ffffffffffffffffffffffffffffffffffffffff16815260200191505060206040518083038186803b15801561057957600080fd5b505afa15801561058d573d6000803e3d6000fd5b505050506040513d60208110156105a357600080fd5b81019080805190602001909291905050501015610628576040517f08c379a000000000000000000000000000000000000000000000000000000000815260040180806020018281038252600f8152602001807f4e6f7420656e6f75676874204b4152000000000000000000000000000000000081525060200191505060405180910390fd5b7ffa383685af7aee0247276babe7acc9e1ea0531fee8014833fb8a3521ee27e2ff33306000548473ffffffffffffffffffffffffffffffffffffffff166370a08231336040518263ffffffff1660e01b8152600401808273ffffffffffffffffffffffffffffffffffffffff1673ffffffffffffffffffffffffffffffffffffffff16815260200191505060206040518083038186803b1580156106cb57600080fd5b505afa1580156106df573d6000803e3d6000fd5b505050506040513d60208110156106f557600080fd5b8101908080519060200190929190505050604051808573ffffffffffffffffffffffffffffffffffffffff1673ffffffffffffffffffffffffffffffffffffffff1681526020018473ffffffffffffffffffffffffffffffffffffffff1673ffffffffffffffffffffffffffffffffffffffff16815260200183815260200182815260200194505050505060405180910390a160006060600360009054906101000a900473ffffffffffffffffffffffffffffffffffffffff1673ffffffffffffffffffffffffffffffffffffffff1630600054604051602401808373ffffffffffffffffffffffffffffffffffffffff1673ffffffffffffffffffffffffffffffffffffffff168152602001828152602001925050506040516020818303038152906040527f6cb927d8000000000000000000000000000000000000000000000000000000007bffffffffffffffffffffffffffffffffffffffffffffffffffffffff19166020820180517bffffffffffffffffffffffffffffffffffffffffffffffffffffffff83818316178352505050506040518082805190602001908083835b602083106108bc5780518252602082019150602081019050602083039250610899565b6001836020036101000a038019825116818451168082178552505050505050905001915050600060405180830381855af49150503d806000811461091c576040519150601f19603f3d011682016040523d82523d6000602084013e610921565b606091505b50915091507ffa383685af7aee0247276babe7acc9e1ea0531fee8014833fb8a3521ee27e2ff33306000548673ffffffffffffffffffffffffffffffffffffffff166370a08231336040518263ffffffff1660e01b8152600401808273ffffffffffffffffffffffffffffffffffffffff1673ffffffffffffffffffffffffffffffffffffffff16815260200191505060206040518083038186803b1580156109c957600080fd5b505afa1580156109dd573d6000803e3d6000fd5b505050506040513d60208110156109f357600080fd5b8101908080519060200190929190505050604051808573ffffffffffffffffffffffffffffffffffffffff1673ffffffffffffffffffffffffffffffffffffffff1681526020018473ffffffffffffffffffffffffffffffffffffffff1673ffffffffffffffffffffffffffffffffffffffff16815260200183815260200182815260200194505050505060405180910390a16000546002600082825401925050819055506001935050505090565b606060068054600181600116156101000203166002900480601f016020809104026020016040519081016040528092919081815260200182805460018160011615610100020316600290048015610b3a5780601f10610b0f57610100808354040283529160200191610b3a565b820191906000526020600020905b815481529060010190602001808311610b1d57829003601f168201915b5050505050905090565b610b4c610ddd565b6019601080602002604051908101604052809291908260108015610bbb576020028201915b8160009054906101000a900473ffffffffffffffffffffffffffffffffffffffff1673ffffffffffffffffffffffffffffffffffffffff1681526020019060010190808311610b71575b5050505050905090565b60198160108110610bd257fe5b016000915054906101000a900473ffffffffffffffffffffffffffffffffffffffff1681565b6000808210158015610c0b5750600f8211155b610c1457600080fd5b3360198360108110610c2257fe5b0160006101000a81548173ffffffffffffffffffffffffffffffffffffffff021916908373ffffffffffffffffffffffffffffffffffffffff160217905550819050919050565b606060058054600181600116156101000203166002900480601f016020809104026020016040519081016040528092919081815260200182805460018160011615610100020316600290048015610d015780601f10610cd657610100808354040283529160200191610d01565b820191906000526020600020905b815481529060010190602001808311610ce457829003601f168201915b5050505050905090565b600160009054906101000a900473ffffffffffffffffffffffffffffffffffffffff1681565b606060078054600181600116156101000203166002900480601f016020809104026020016040519081016040528092919081815260200182805460018160011615610100020316600290048015610dc95780601f10610d9e57610100808354040283529160200191610dc9565b820191906000526020600020905b815481529060010190602001808311610dac57829003601f168201915b5050505050905090565b6000600254905090565b60405180610200016040528060109060208202803883398082019150509050509056fea26469706673582212201f9a4257b54e96e3aa38ba78189a2b15c04e5b7436615fae4403e76032c5600864736f6c63430006000033",
  "source": "/*\r\n    SPDX-License-Identifier: UNLICENSED\"\r\n*/\r\npragma solidity >= 0.5.0 < 0.7.0;\r\n//pragma experimental ABIEncoderV2;\r\n\r\nimport {KarToken} from \"./KarToken.sol\";\r\n\r\ncontract KarPassport {\r\n\r\n\r\n    event TransfertToken(address sender, address passport, uint amount, uint senderBalance);\r\n\r\n    /*\r\n        Define an public owner variable. Set it to the creator of the contract when it is initialized.\r\n    */\r\n    uint   PASSPORT_PRICE = 10;\r\n\r\n    //contract info\r\n    address payable public _owner;\r\n    uint256 private _balance;\r\n    \r\n    address private _tokenContractAddr;\r\n\r\n    // car info\r\n    string private _name;\r\n    string private _id;\r\n    string private _brand;\r\n    string private _modele;\r\n    uint256 private _year;\r\n    uint256 private _releaseDate;\r\n    string private _oilType;\r\n    string private _gearbox;\r\n    string private _outColor;\r\n    string private _inColor;\r\n    uint256 private _numberOfDoor;\r\n    uint256 private _numberOfPlace;\r\n    uint256 private _power;\r\n    string [] private _options;\r\n\r\n    //car variable\r\n    uint256 private _km;\r\n    uint256 private _technicalControlExpirationDate;\r\n    uint256 private _insuranceExpirationDate;\r\n    string private _numberplate;\r\n\r\n    //car event\r\n    Event [] events;\r\n    Event [] toBeValidatedEvents;\r\n    Owner [] historyOwners;\r\n\r\n    //Typologies\r\n    enum EventType { Insurance, Repairing, TechnicalControl, Accident, Upgrade }\r\n\r\n    struct Event {\r\n        EventType typeEvent;\r\n        string description; \r\n        address contributor; \r\n        string [] interventions;\r\n        uint256 date;\r\n        uint price; \r\n        string currency;\r\n        uint256 expirationDate;\r\n    }\r\n\r\n    struct Owner {\r\n        address _owner;\r\n        uint256 acquisitionDate;\r\n    }\r\n\r\n\r\n    /*\r\n        Create a modifier that throws an error if the msg.sender is not the owner.\r\n    */\r\n    modifier requireOwner() {\r\n        require(\r\n            msg.sender == _owner,\r\n            \"Not owner\"\r\n        );\r\n        _;\r\n    }\r\n\r\n\r\n    /*\r\n        constructor\r\n    */\r\n    constructor(address tokenContractAddr)\r\n    public\r\n    {\r\n        \r\n        _tokenContractAddr = tokenContractAddr;\r\n        _owner = msg.sender;\r\n        _name=\"name\";\r\n        _id=\"id\";\r\n        _brand=\"brand\";\r\n        _modele=\"modele\";\r\n    }\r\n\r\n    /*constructor(address tokenContractAddr,\r\n                string memory name, string memory id, string memory brand, string memory modele, uint256 year, uint256 releaseDate, \r\n                string memory oilType, string memory gearbox, string memory outColor, string memory inColor, uint256 numberOfDoor, \r\n                uint256 numberOfPlace, uint256 power)\r\n    {\r\n        \r\n        _tokenContractAddr = tokenContractAddr;\r\n        _owner = msg.sender;\r\n        _name=name;\r\n        _id=id;\r\n        _brand=brand;\r\n        _modele=modele;\r\n        _year=year;\r\n        _releaseDate=releaseDate;\r\n        _oilType=oilType;\r\n        _gearbox=gearbox;\r\n        _outColor=outColor;\r\n        _inColor=inColor;\r\n        _numberOfDoor=numberOfDoor;\r\n        _numberOfPlace=numberOfPlace;\r\n        _power=power;\r\n        //_options=options;\r\n    }*/\r\n    \r\n    \r\n    function activate()\r\n    public returns (bool)\r\n    {\r\n        KarToken token = KarToken(_tokenContractAddr);\r\n        require(token.balanceOf(msg.sender) >= PASSPORT_PRICE, \"Not enought KAR\");\r\n        emit TransfertToken(msg.sender, address(this), PASSPORT_PRICE, token.balanceOf(msg.sender));\r\n\r\n        (bool success, bytes memory result) = _tokenContractAddr.delegatecall(abi.encodeWithSignature(\"transfer(address,uint)\", address(this), PASSPORT_PRICE));\r\n        //token.transfer(address(this), PASSPORT_PRICE);\r\n        emit TransfertToken(msg.sender, address(this), PASSPORT_PRICE, token.balanceOf(msg.sender));\r\n        \r\n        _balance += PASSPORT_PRICE;\r\n        \r\n        return true;\r\n    }\r\n    \r\n    /**\r\n     * @dev Returns the name\r\n     */\r\n    function balance() public view returns (uint256) {\r\n        return _balance;\r\n    }\r\n\r\n\r\n    /**\r\n     * @dev Returns the name\r\n     */\r\n    function name() public view returns (string memory) {\r\n        return _name;\r\n    }\r\n\r\n\r\n    /**\r\n     * @dev Returns the id\r\n     */\r\n    function id() public view returns (string memory) {\r\n        return _id;\r\n    }\r\n\r\n    /**\r\n     * @dev Returns the brand\r\n     */\r\n    function brand() public view returns (string memory) {\r\n        return _brand;\r\n    }\r\n\r\n    /**\r\n     * @dev Returns the modele\r\n     */\r\n    function modele() public view returns (string memory) {\r\n        return _modele;\r\n    }\r\n\r\n\r\n\r\n    address[16] public adopters;\r\n    \r\n    // Adopting a pet\r\n    function adopt(uint petId) public returns (uint) {\r\n        require(petId >= 0 && petId <= 15);\r\n\r\n        adopters[petId] = msg.sender;\r\n\r\n        return petId;\r\n    }\r\n\r\n    // Retrieving the adopters\r\n    function getAdopters() public view returns (address[16] memory) {\r\n        return adopters;\r\n    }\r\n\r\n\r\n}\r\n",
  "sourcePath": "E:/Dropbox/CADAERO/Projets/KarPassport/KarPass/contracts/KarPassport.sol",
  "compiler": {
    "name": "solc",
    "version": "0.6.0+commit.26b70077.Emscripten.clang"
  },
  "schemaVersion": "3.2.5",
  "updatedAt": "2020-10-06T16:38:34.033Z",
  "devdoc": {
    "methods": {
      "balance()": {
        "details": "Returns the name"
      },
      "brand()": {
        "details": "Returns the brand"
      },
      "id()": {
        "details": "Returns the id"
      },
      "modele()": {
        "details": "Returns the modele"
      },
      "name()": {
        "details": "Returns the name"
      }
    }
  },
  "userdoc": {
    "methods": {}
  }
}